:100000000C943E010C946F010C946F010C946F01E1
:100010000C946F010C946F010C946F010C946F01A0
:100020000C946F010C946F010C946F010C946F0190
:100030000C946F010C946F010C946F010C946F0180
:100040000C946F010C946F010C946F010C946F0170
:100050000C946F010C946F010C946F010C9482044A
:100060000C946F010C94F6040C94CC040C946F0166
:100070000C946F010C946F010C946F010C946F0140
:100080000C946F010C946F010C946F010C946F0130
:100090000C946F010C946F010C946F010C942C055F
:1000A0000C946F010C946F010C946F010C946F0110
:1000B0000C946F010C946F010C946F010C946F0100
:1000C0000C946F010C946F010C946F010C946F01F0
:1000D0000C946F010C946F010C946F010C946F01E0
:1000E0000C946F010C94C0010C94B8010C94BC03E7
:1000F0000C94DF010C94E9010C94F7010C94830239
:100100000C94D6030C94D7010C94ED010C94F203DB
:100110000C94AD030C94A1010C94FD010C94C90244
:100120000C94AC030C9433020C94C7010C94600241
:100130000C94CF030C94D1010C94F3010C94E103C3
:100140000C9409020C9416030C946F020C94A601F3
:100150000C94BC010C94CD010C94DB010C941204A2
:100160000C9450060C94E5010C94F5030C94910248
:100170000C94C40100002100240027002A002D0057
:100180003000330001010000040107010A010000F2
:100190002200250028002B002E003100340002012F
:1001A0000000050108010B01050505050705080804
:1001B0000808020202020A0A0808040404040101F1
:1001C0000101010101010303030303030303040706
:1001D00007070C0C0C0C0C0C0C0C0202020206069D
:1001E0000606060606060B0B0B0B0B0B0B0B010290
:1001F0001020200808102040102040800201020139
:1002000008040201010204081020408080402010F0
:100210000804020180040201804020100804020149
:1002200008040201010204081020408001020408B1
:100230001020408000000A0B02090C0D0E08070375
:1002400004010000000000000000000000000000A9
:10025000000000000000000000000000000000009E
:10026000121110000000000000000000000000005B
:1002700000000000000000000000500611241FBE16
:10028000CFEFD1E2DEBFCDBF00E00CBF12E0A0E0B7
:10029000B2E0E2E4F1E100E00BBF02C007900D9292
:1002A000A239B107D9F724E0A2E9B2E001C01D925A
:1002B000A136B207E1F711E0CEE3D1E000E006C0DD
:1002C00021970109802FFE010E949708CD33D107A5
:1002D00080E00807A9F70E9489060C949F080C94F7
:1002E0000000282F30E0F901EC5CFD4F9491F901FA
:1002F000E251FE4F449128553E4FF90124912223AB
:1003000009F435C0992311F191509231F8F4E92F95
:10031000F0E08827E157FE4F8F4F0C949708C001FB
:10032000C401A101B801BC01A601C701CD01D101E1
:10033000D701DB01DF01E501E901A601ED01F301D0
:10034000F701809180008F7780938000E22FF0E0AA
:10035000EE0FFF1FE257FE4FA591B4918FB7F894AF
:10036000EC91611148C040954E234C938FBF089586
:10037000809180008F7DE8CF80918000877FE4CFDF
:1003800084B58F7784BDE2CF84B58F7DFBCF80911C
:10039000B0008F778093B000D9CF8091B0008F7D6F
:1003A000F9CF809190008F7780939000CFCF80918C
:1003B00090008F7DF9CF80919000877FF5CF80915D
:1003C000A0008F778093A000C1CF8091A0008F7D87
:1003D000F9CF8091A000877FF5CF809120018F77A2
:1003E00080932001B3CF809120018F7DF9CF809140
:1003F0002001877FF5CF4E2BB8CFE0912D03F091F0
:100400002E03309729F01092280310922703199495
:100410000895CF93DF93AC01E0912B03F0912C036F
:100420003097F1F090912A03809129039817C0F03A
:1004300090E0292F30E02617370754F4D901AD5644
:10044000BD4F240F351FE90128812C939F5FF1CF09
:1004500010922A0360932903CB01DF91CF91199465
:10046000DF91CF910895AF92BF92CF92DF92EF923A
:10047000FF920F931F93CF93DF936C017B018B014E
:10048000040F151FEB015E01AE18BF08C017D1079E
:1004900059F06991D601ED91FC910190F081E02D28
:1004A000C6011995892B79F7C501DF91CF911F916D
:1004B0000F91FF90EF90DF90CF90BF90AF90089595
:1004C000FC01538D448D252F30E0842F90E0821B5A
:1004D000930B541710F0CF96089501970895FC01DF
:1004E000918D828D981761F0A28DAE0FBF2FB11D37
:1004F0005D968C91928D9F5F9F73928F90E008958F
:100500008FEF9FEF0895FC01918D828D981731F048
:10051000828DE80FF11D858D90E008958FEF9FEF9C
:100520000895FC01918D228D892F90E0805C9F4F72
:10053000821B91098F739927089588EB93E00E949D
:10054000910221E0892B09F420E0822F0895FC011B
:10055000A48DA80FB92FB11DA35ABF4F2C91848D24
:1005600090E001968F739927848FA689B7892C9381
:10057000A089B1898C91837080648C93938D848DD4
:10058000981306C00288F389E02D80818F7D8083D7
:100590000895EF92FF920F931F93CF93DF93EC0197
:1005A00081E0888F9B8D8C8D98131AC0E889F9891A
:1005B000808185FF15C09FB7F894EE89FF8960831D
:1005C000E889F98980818370806480839FBF81E09E
:1005D00090E0DF91CF911F910F91FF90EF900895E0
:1005E000F62E0B8D10E00F5F1F4F0F731127E02EBB
:1005F0008C8D8E110CC00FB607FCFACFE889F989F3
:10060000808185FFF5CFCE010E94A702F1CFEB8D4F
:10061000EC0FFD2FF11DE35AFF4FF0829FB7F894C6
:100620000B8FEA89FB8980818062CFCFCF93DF93E4
:10063000EC01888D8823B9F0AA89BB89E889F989FA
:100640008C9185FD03C0808186FD0DC00FB607FC2F
:10065000F7CF8C9185FFF2CF808185FFEDCFCE0162
:100660000E94A702E9CFDF91CF91089580E090E04A
:10067000892B29F00E949D0281110E94000080E0D8
:1006800090E0892B49F080E090E0892B29F00E94CE
:10069000000081110E94000080E090E0892B49F069
:1006A00080E090E0892B29F00E94000081110E94D7
:1006B000000080E090E0892B49F080E090E0892BF9
:1006C00029F00E94000081110C94000008952091EF
:1006D000D902260F3327331F21323105ECF4209144
:1006E000FD02FC0190E080E0243069F082E0089592
:1006F000A091D9022191AC0147545D4FA40FB52FB1
:10070000B11D2C930196861798F38091D902680F3A
:100710006093D90280E0089581E008951092FD026F
:1007200081E08093FF021092FE0261E084E10E946A
:10073000710161E085E10E947101E9EBF0E08081E7
:100740008E7F808380818D7F808388E48093B80052
:1007500085E48093BC0008950895E0912A03809178
:100760002903E81730F4F0E0ED56FD4F808190E06A
:1007700008958FEF9FEF089590912A0380912903A8
:100780002FEF3FEF981748F4E92FF0E0ED56FD4FBB
:10079000208130E09F5F90932A03C90108958091E2
:1007A000290390912A03891B990B0895CF93DF9316
:1007B000CB01EA01642F0E946703CE01DF91CF9144
:1007C0000895CF93DF931F92CDB7DEB7698361E0C1
:1007D000CE0101960E94670381E090E00F90DF91C7
:1007E000CF91089590E080E0089580919202813049
:1007F00051F448E150E06FE273E085E594E00E9437
:10080000D6031092920280919202823051F440E21B
:1008100050E067E473E085E594E00E94D60310920F
:1008200092020895019731F485E594E00E94BC039B
:10083000809392020895CF93DF93C0E3D2E0888142
:10084000229661E00E94710182E0C036D807B9F7B4
:10085000DF91CF910895CF93DF9385ED8093BC0016
:100860008091B5029091B602A091B702B091B80202
:100870000796A11DB11D23E0B695A795979587957D
:100880002A95D1F72091BC0024FD03C01092FD02EF
:1008900036C04091B5025091B6026091B702709196
:1008A000B802452B462B472B69F30097A105B105EC
:1008B00041F02AE22A95F1F700C00197A109B10998
:1008C000E1CF8091B40291E09093B3028823B9F014
:1008D000C091B800D091BA008091BC008A7B80930F
:1008E000BC0060E084E10E94710160E085E10E944B
:1008F00071010E948E03D093BA00C093B800DF91BB
:10090000CF9108951F920F920FB60F9211242F933B
:100910003F938F939F93AF93BF938091B403909134
:10092000B503A091B603B091B7033091B30323E0B0
:10093000230F2D3758F50196A11DB11D2093B30348
:100940008093B4039093B503A093B603B093B70319
:100950008091AF039091B003A091B103B091B20325
:100960000196A11DB11D8093AF039093B003A09396
:10097000B103B093B203BF91AF919F918F913F911B
:100980002F910F900FBE0F901F90189526E8230F00
:100990000296A11DB11DD2CF1F920F920FB60F92DA
:1009A00011240BB60F922F933F934F935F936F9346
:1009B0007F938F939F93AF93BF93EF93FF9388EBB6
:1009C00093E00E94A702FF91EF91BF91AF919F9199
:1009D0008F917F916F915F914F913F912F910F90E8
:1009E0000BBE0F900FBE0F901F9018951F920F9285
:1009F0000FB60F9211240BB60F922F938F939F93E4
:100A0000EF93FF93E091C803F091C9038081E091D7
:100A1000CE03F091CF0382FD1DC090818091D10360
:100A20008F5F8F732091D203821741F0E091D10341
:100A3000F0E0E854FC4F958F8093D103FF91EF9144
:100A40009F918F912F910F900BBE0F900FBE0F9023
:100A50001F9018958081F2CF1F920F920FB60F92C0
:100A600011240BB60F922F933F934F935F936F9385
:100A70007F938F939F93AF93BF93EF93FF93809157
:100A8000B900887F803609F44DC008F040C0883234
:100A900009F4A9C028F5803109F49DC0C8F4882361
:100AA00009F4FBC0883009F496C0FF91EF91BF9123
:100AB000AF919F918F917F916F915F914F913F91F6
:100AC0002F910F900BBE0F900FBE0F901F90189597
:100AD000883109F488C0803241F78093FC0214C049
:100AE000803409F49DC040F48033B9F38833E9F6CB
:100AF0008093FC0285ECB0C0803509F485C0883550
:100B000009F496C0883489F60E942B04CECF883928
:100B100009F48CC038F5883729F050F4883611F084
:100B2000803719F683E08093FD021092FB0257C0D4
:100B3000883809F47BC0803919F0803809F0B5CFC6
:100B40008091FB02803208F071C0E091FB0281E0ED
:100B50008E0F8093FB028091BB00F0E0E552FD4FC9
:100B600080833DC0803B39F0E0F4803A09F479C0DD
:100B7000883A09F09ACF84E08093FD021092DA025D
:100B80001092D902E0912503F091260319958091E6
:100B9000D90281110FC081E08093D9021092B9026D
:100BA00009C0803C09F4A6CF883C09F4A3CF883B58
:100BB00009F07BCFE091DA0281E08E0F8093DA02B8
:100BC000F0E0E754FD4F80818093BB009091DA0202
:100BD0008091D90229C0809122038093BB0085ECCB
:100BE0008093BC0062CF90912103809120039817DD
:100BF00058F5E091210381E08E0F80932103F0E00E
:100C0000E050FD4F8081E9CFE091210381E08E0F1C
:100C1000809321038091BB00F0E0E050FD4F808382
:100C200090912103809120039817C8F285E8D8CFCE
:100C3000E091210381E08E0F809321038091BB001E
:100C4000F0E0E050FD4F80838091FF0281115CCF86
:100C500081E08093FE0284EA8093BC001092FD0242
:100C600024CF85EC8093BC001092FD028091FB02A2
:100C7000803230F4E091FB02F0E0E552FD4F10824B
:100C80006091FB0270E0E0912303F09124038BED6F
:100C900092E019951092FB0208CF1092FC0234CF1B
:100CA000E8EBF3E01382128288EE93E0A0E0B0E07C
:100CB00084839583A683B78324E632E0318320833F
:100CC00025EC30E03587248724EC30E03787268711
:100CD00020EC30E0318B208B21EC30E0338B228B09
:100CE00022EC30E0358B248B26EC30E0378B268BE2
:100CF000118E128E138E148EE5E5F4E013821282AB
:100D000084839583A683B78386E792E0918380836B
:100D10000895CF93DF9300D0CDB7DEB7789484B534
:100D2000826084BD84B5816084BD85B5826085BDE7
:100D300085B5816085BD80916E00816080936E0075
:100D40001092810080918100826080938100809167
:100D50008100816080938100809180008160809318
:100D600080008091B10084608093B1008091B000D8
:100D700081608093B00080919100826080939100A7
:100D800080919100816080939100809190008160BA
:100D9000809390008091A10082608093A100809157
:100DA000A10081608093A1008091A0008160809368
:100DB000A000809121018260809321018091210116
:100DC00081608093210180912001816080932001C6
:100DD00080917A00846080937A0080917A008260AA
:100DE00080937A0080917A00816080937A0080916C
:100DF0007A00806880937A001092C100E091C80365
:100E0000F091C90382E08083E091C403F091C503AF
:100E10001082E091C603F091C70340E14083109235
:100E2000D003E091CC03F091CD0386E08083E09184
:100E3000CA03F091CB03808180618083E091CA0373
:100E4000F091CB03808188608083E091CA03F091A8
:100E5000CB03808180688083E091CA03F091CB034B
:100E600080818F7D80834AE050E064E872E088EB07
:100E700093E00E94330242E050E06FE872E088EBBA
:100E800093E00E94330210922A03109229031092D9
:100E90002803109227030E948E038DEF91E0909318
:100EA00026038093250389E092E0909324038093A6
:100EB000230350E15093BA0082E194E090932C0315
:100EC00080932B0385EF93E090932E0380932D0363
:100ED000A0E3B2E08D919D919927FC01E251FE4F74
:100EE000249188559E4FFC0184918823A1F090E0C5
:100EF000880F991FFC01EC58FE4F65917491FC011D
:100F0000E257FE4F859194918FB7F894FB01908141
:100F1000922B90838FBFF2E0A036BF07D9F60E94D4
:100F20001B04A0E0B2E08D919D919927FC01E25154
:100F3000FE4F249188559E4FFC0184918823D1F067
:100F400090E0880F991FFC01EC58FE4F4591549199
:100F5000FC01E257FE4F659174919FB7F894FA0136
:100F60003081822F809583238083FB018081282B11
:100F700020839FBFF2E0A031BF07A9F6EFE2F3E0C4
:100F8000119243E0E734F407D9F7E7E4F3E087E6AA
:100F900093E02FEF21938E179F07E1F79FE0292E13
:100FA000312C2FE7422E23E0522E812C912C54011C
:100FB0008394E0E1F2E0AFE2B3E0808132968633E1
:100FC00008F0865320917B00982F9870277F922BF2
:100FD00090937B008770806480937C0080917A007E
:100FE000806480937A0080917A0086FDFCCF8091A6
:100FF00078009091790058968C93589759969C93C5
:101000005997129652E0E033F507B9F687E693E078
:101010009B838A838C010E941B04380180E3C82EC5
:1010200082E0D82EF12CE12CD601BC91B983E2E00C
:10103000CE0ED11C60E08B2F0E947101C10101977F
:10104000F1F780910901D3018D933D01BFEFEB1AB8
:10105000FB0AE8E1EE16F10409F05BC0085E1F4FE1
:101060004FEA53E040175107B1F6EFE2F3E0AA81EF
:10107000BB810D91BB83AA8310E057964C91579783
:1010800050E09F966C9170E0F12C30E020E0D801A8
:10109000022E02C0B595A7950A94E2F7CD018170A2
:1010A0009927A0FD02C08FEF9FEFDA01022E02C048
:1010B000B595A7950A94E2F7A0FF30C00196DB0131
:1010C000022E02C0B595A7950A94E2F76C01A0FF25
:1010D00027C0BFEFCB1ADB0AD501C401022E04C022
:1010E000880F991FAA1FBB1F0A94D2F71C141D0456
:1010F000DCF4F82A2F5F3F4F2830310541F6F1929A
:101100004A815B814416550609F0B1CF0E9436032F
:1011100050CF61E089810E94710186CF0197CFCFC6
:10112000A1E0CA1AD108D8CF8095F822E3CFEE0FFC
:10113000FF1F881F8BBF0790F691E02D1994F8943C
:02114000FFCFDF
:10114200310030002F002E002D002C002B002A0031
:1011520036003700380039003A003B003C003D00C1
:101162003E003F0040004100420043004400450071
:101172000200030004000500060007000800090041
:101182000A000B000C000D000E000F0010001100F1
:1011920016001700180019001A001B001C001D0081
:1011A20000000000C90233026002160391026F02BE
:1011B200830200000000E103D603F203AC03CF0375
:1011C200BC03AD035374617274204D656761000DF9
:0211D2000A0011
:00000001FF
