:100000000C9444010C946C010C946C010C946C01E4
:100010000C946C010C946C010C946C010C946C01AC
:100020000C946C010C946C010C94F91C0C94681DDC
:100030000C946C010C946C010C946C010C946C018C
:100040000C946C010C946C010C946C010C946C017C
:100050000C946C010C946C010C946C010C94AF1C0E
:100060000C946C010C94C01F0C949A1F0C946C019E
:100070000C946C010C946C010C946C010C946C014C
:100080000C946C010C946C010C946C010C946C013C
:100090000C94F21F0C946C010C946C010C946C0188
:1000A0000C946C010C946C010C946C01CDCCCC3D87
:1000B0000AD7233C17B7D13877CC2B329595E62455
:1000C0001FB14F0A000020410000C84200401C46FA
:1000D00020BCBE4CCA1B0E5AAEC59D74080B000254
:1000E00002020000090400000102020000052400D1
:1000F0001001052401010104240206052406000163
:100100000705810310004009040100020A000000F5
:1001100007050202400000070583024000000403B7
:10012000090412010002EF02014041233680000160
:100130000102030141726475696E6F204C4C4300EB
:1001400041726475696E6F204C656F6E6172646F89
:10015000007D005D002C005B007B22636D64223A11
:1001600020227374446967496E222C226461746191
:10017000223A007D005D002C005B007B22636D64F1
:10018000223A20227374416E61496E222C226461EE
:100190007461223A004C6120636F6D6D616E64651D
:1001A000205B636D645D20657374206D616E717595
:1001B000616E746520004C6120636F6D6D616E64CB
:1001C00065205B636D645D206E27657374207061CC
:1001D0007320696D706C656D656E74656500646132
:1001E0007461206E6F6E207072C3A973656E746542
:1001F0000064617461206E276573742070617320E0
:10020000756E20626F6F6C0064617461206E6F6E3A
:10021000207072C3A973656E74650000000000252C
:100220000028002B002E0031000404040404030401
:100230000502020202040302020202060606060684
:100240000604040202020404040802011040804073
:1002500010204080408008020401804020100201EC
:10026000108010204040200000000200090F000014
:10027000030401000C00000000000000000000006A
:10028000000000000000F92211241FBECFEFDAE0C9
:10029000DEBFCDBF12E0A0E0B1E0E2E0FCE502C0CD
:1002A00005900D92AC36B107D9F727E0ACE6B2E085
:1002B00001C01D92A43FB207E1F711E0C4E4D1E010
:1002C00004C02197FE010E945F2BC334D107C9F7F8
:1002D0000E9494230C94FF2D0C940000089508951F
:1002E000FC0180912003882311F13FB7F89482E04C
:1002F0008093E9002091F200822F90E018161906F1
:1003000014F481E090E0882339F0289844E6409383
:100310001F034091F1004083222339F02091F20025
:10032000211103C02BE62093E8003FBF08958FEF13
:100330009FEF0895282F30E0F901E959FD4F94917E
:10034000F901E85BFD4F8491275D3D4FF901249150
:10035000222309F430C09923E9F091509F30D0F462
:10036000E92FF0E0EA54FE4F0C945F2BE401E80122
:10037000C501DC01E001CA01CA01CA01EB01F101BA
:10038000F501F901FF01CA010302909180009F77F6
:1003900090938000E22FF0E0EE0FFF1FE55EFD4F2F
:1003A000A591B4919FB7F894EC91611132C08095FA
:1003B0008E238C939FBF0895909180009F7DE8CFFE
:1003C00090918000977FE4CF94B59F7794BDE2CF62
:1003D00094B59F7DFBCF909190009F779093900074
:1003E000D9CF909190009F7DF9CF90919000977F09
:1003F000F5CF9091C0009F779093C000CBCF9091A4
:10040000C0009F7DF9CF9091C200977F9093C2006A
:10041000C1CF8E2BCECFFC0183858F3F19F061E0D9
:100420000C949A010895FC0180819181892B39F007
:10043000A281B3819C9111968C919CBD8DBD8385C9
:100440008F3F19F060E00C949A0108958230910575
:1004500038F0880F991F880F991F05970197F1F7BA
:100460000895AF92BF92CF92DF92EF92FF920F93D7
:100470001F93CF93DF93EC0188819981892B89F0B9
:100480006EBD0DB407FEFDCFBEB48B2DDF91CF91B5
:100490001F910F91FF90EF90DF90CF90BF90AF90A2
:1004A00008958885998511E0892B09F010E8AA2420
:1004B000A394862F812309F0A12C062F2C813D8146
:1004C0004E815F8160E271EA87E090E00E94062B36
:1004D000F22EB02EE12CC22ED12CFF2019F0C60135
:1004E0000E9426028A85877F09F042C08D858F3F52
:1004F00089F0902F912381E009F480E08A1551F072
:10050000EF85F8898F89992369F19081892B808300
:10051000AA24A394E989FA898081998D892B808303
:10052000FF2019F0C6010E9426028E858F3F39F008
:10053000EB89FC898081988D892309F0E12AE9897A
:10054000FA899081898D8095892380838E858F3F5C
:1005500009F0BE2C88859985892BB9F5110F1111E9
:10056000BCCF93CF9081809589238083A12CD2CF5B
:10057000E989FA898081998D892B8083FF2019F080
:10058000C6010E9426028D858F3F49F0EF85F889CC
:100590008F89902F9123A9F09081892B8083E989FD
:1005A000FA899081898D8095892380838E858F3FFC
:1005B00069F2EB89FC898081988D892339F2E12ADF
:1005C000C5CF908180958923E9CF1695C8CF8F92AA
:1005D0009F92AF92BF92CF92DF92EF92FF920F93D2
:1005E0001F93CF93DF937C014B016A01B22EA32EA0
:1005F0000E941302E401C80CD91CCC15DD0569F476
:10060000CB2DDA2D0C0F1D1FC017D10759F06FEF3E
:10061000C7010E9431028993F7CF6991C7010E94F7
:100620003102EBCFC7010E940B0281E0DF91CF9135
:100630001F910F91FF90EF90DF90CF90BF90AF9000
:100640009F908F9008958F929F92AF92BF92CF927A
:10065000DF92EF92FF920F931F93CF93DF937C0172
:10066000B62EA72E6A0149010E941302E401080D6B
:10067000191DC017D10761F4CB2DDA2DCC0EDD1E6C
:10068000CC15DD0551F06991C7010E943102F8CF08
:100690006991C7010E943102ECCFC7010E940B0291
:1006A00081E0DF91CF911F910F91FF90EF90DF904C
:1006B000CF90BF90AF909F908F9008953FB7F894E0
:1006C00080911B0390911C03A0911D03B0911E0308
:1006D00026B5A89B05C02F3F19F00196A11DB11D9D
:1006E0003FBFBA2FA92F982F8827BC01CD01620FD9
:1006F000711D811D911D42E0660F771F881F991F94
:100700004A95D1F708958F929F92AF92BF92CF9260
:10071000DF92EF92FF924B015C010E945E036B013E
:100720007C010E945E036C197D098E099F09683E59
:10073000734081059105A8F321E0821A9108A10870
:10074000B10888EEC80E83E0D81EE11CF11C8114AC
:100750009104A104B10429F7FF90EF90DF90CF90AE
:10076000BF90AF909F908F9008954091D702509185
:10077000D8022091D5023091D60242175307B4F423
:100780009091E8009570E1F39091E80092FD19C016
:100790008093F1008091D7029091D80201968F73D7
:1007A0009927892B19F48EEF8093E8008091D70266
:1007B0009091D80201969093D8028093D70281E05D
:1007C000089580E00895EF92FF920F931F93CF93C7
:1007D000DF93F82E192FE62E042F81E0860F880F65
:1007E0000E94B50383E00E94B503CF2DD12FEC0EFC
:1007F000FD2EF11CCE15DF05B9F007FF13C0FE0179
:1008000084910E94B503182F80E00E94B5038123D4
:1008100021968111EFCFDF91CF911F910F91FF9022
:10082000EF9008958881EDCF81E0F5CFDF92EF92D0
:10083000FF920F931F93CF93DF93D82E8A01EB0182
:100840007B01E40EF51ECE15DF0559F0D7FE12C070
:10085000FE0184910E94B50321968111F4CF0FEF20
:100860001FEFC801DF91CF911F910F91FF90EF9083
:10087000DF9008958881EECF2FB7F894877080932A
:10088000E9009091E800892F807295FF04C0909153
:10089000F20080E4891B2FBF08957F928F929F9270
:1008A000AF92BF92CF92DF92EF92FF920F931F937E
:1008B000CF93DF93C82E8B017A01809120038111A1
:1008C00010C08FEF9FEFDF91CF911F910F91FF909D
:1008D000EF90DF90CF90BF90AF909F908F907F90E0
:1008E00008958091DB0280FF05C08091E000826066
:1008F0008093E000CE2DDF2DD12C8AEFB82E8C2DE9
:100900008770982E8C2D8072882E8C2D8074782E76
:100910009AE3A92E209719F4DD2009F452C08C2DFA
:100920000E943C0481110AC0BA94BB2051F261E0DC
:1009300070E080E090E00E948303ECCF8C171D06EE
:1009400011F00CF08C2F9FB7F8949092E900209151
:10095000E80025FD02C09FBFDDCF282F30E0C21B7D
:10096000D30B882029F08150A0F01092F100FBCF2A
:10097000F801C7FC0AC0815050F041914093F1004A
:10098000FACF44914093F10031968150D0F7020F95
:10099000131FDD2021F0A092E800D12CDCCF809144
:1009A000E80085FD07C0A092E800DD24D3942097DD
:1009B00091F2F3CF209779F6772069F2A092E800C0
:1009C000CACF5D9884E68093DA02C7017CCF61507C
:1009D00030F02091F100FC0120830196F8CF289897
:1009E00084E680931F030895CF93DF93EC012FB724
:1009F000F8948091170390911803A0911903B09176
:100A00001A032FBF88879987AA87BB87E881F98156
:100A10000284F385E02DCE01099597FF1EC02FB704
:100A2000F8948091170390911803A0911903B09145
:100A30001A032FBF488559856A857B85841B950BD2
:100A4000A60BB70B4C815D816E817F818417950762
:100A5000A607B707D8F28FEF9FEFDF91CF910895E8
:100A6000AF92BF92CF92DF92EF92FF920F931F93BC
:100A7000CF93DF936C017B018B01040F151FEB01FA
:100A80005E01AE18BF08C017D10759F06991D601B1
:100A9000ED91FC910190F081E02DC6010995892B23
:100AA00079F7C501DF91CF911F910F91FF90EF90E2
:100AB000DF90CF90BF90AF9008958091CD028111CB
:100AC0000DC082E08093C90284E08093CA02109234
:100AD000CC021092CB0281E08093CD0289EC92E0AF
:100AE00008950F931F93CF93DF931F92CDB7DEB777
:100AF00082E0898342E450E06CED70E080E80E947F
:100B000016040E945D05DC0112960D911C910115E1
:100B1000110589F0D801ED91FC910280F381E02D5F
:100B2000BE016F5F7F4FC801099597FD04C0F801B2
:100B300000851185ECCF89810F90DF91CF911F91B6
:100B40000F910895FC01538D448D252F30E0842FA3
:100B500090E0821B930B541710F0CF9608950197E5
:100B60000895FC01918D828D981761F0A28DAE0FD2
:100B7000BF2FB11D5D968C91928D9F5F9F73928F59
:100B800090E008958FEF9FEF0895FC01918D828D85
:100B9000981731F0828DE80FF11D858D90E0089552
:100BA0008FEF9FEF0895FC01918D228D892F90E0AA
:100BB000805C9F4F821B91098F739927089587E965
:100BC00093E00E94D30521E0892B09F420E0822FD5
:100BD000089580E090E0892B29F00E94DF058111C3
:100BE0000C9400000895FC01A48DA80FB92FB11D2D
:100BF000A35ABF4F2C91848D90E001968F73992753
:100C0000848FA689B7892C93A089B1898C9182742D
:100C10008C93938D848D981306C00288F389E02D00
:100C200080818F7D80830895EF92FF920F931F93B1
:100C3000CF93DF93EC0181E0888F9B8D8C8D98138F
:100C400019C0E889F989808185FF14C09FB7F8949D
:100C5000EE89FF896083E889F989808182748083C5
:100C60009FBF81E090E0DF91CF911F910F91FF90A6
:100C7000EF900895F62E0B8D10E00F5F1F4F0F734E
:100C80001127E02E8C8D8E110CC00FB607FCFACF09
:100C9000E889F989808185FFF5CFCE010E94F305AF
:100CA000F1CFEB8DEC0FFD2FF11DE35AFF4FF082DA
:100CB0009FB7F8940B8FEA89FB8980818062CFCF40
:100CC000CF93DF93EC01888D8823B9F0AA89BB8983
:100CD000E889F9898C9185FD03C0808186FD0DC06E
:100CE0000FB607FCF7CF8C9185FFF2CF808185FF8F
:100CF000EDCFCE010E94F305E9CFDF91CF910895AA
:100D0000CF93DF93EC0180911201882331F083E0CF
:100D10000E944D041816190634F081E090E09B8380
:100D20008A8380E090E0DF91CF910895CF93DF93A5
:100D30001F92CDB7DEB76983DC01ED91FC91028093
:100D4000F381E02D41E050E0BE016F5F7F4F0995D8
:100D50000F90DF91CF9108950F931F93CF93DF935F
:100D60008C01D0E0C0E0F801EC0FFD1F6491662318
:100D700041F084E394E00E949606892B11F02196BD
:100D8000F2CFCE01DF91CF911F910F91089583E0B3
:100D90008093E9008091F200882319F08AE3809320
:100DA000E800089583E00E943C0490E00895CF930A
:100DB000DF931F92CDB7DEB7FC018485958597FD43
:100DC00008C02FEF3FEF358724870F90DF91CF9139
:100DD0000895CE0101960E947001019719F489814E
:100DE00090E0F3CF8FEF9FEFF0CF0F931F93CF9350
:100DF000DF931F92CDB7DEB78C01FC01848595850A
:100E000097FF0BC0CE0101960E947001019771F40B
:100E1000898190E0F80195878487F801848595851C
:100E20000F90DF91CF911F910F9108958FEF9FEF5A
:100E3000F1CFFC018485958597FD0BC09FB7F89491
:100E400082E08093E9008091F2009FBF90E00196DC
:100E500008959FB7F89482E08093E9008091F200B2
:100E60009FBF90E00895DC01FB0112962C91129730
:100E7000848195812817190641F491818081813AF6
:100E800031F49D7F81E0913009F080E00895813256
:100E9000E1F79B3029F482811F968C9381E00895BD
:100EA0009A3099F7828150968C93F8CFDC01FB0140
:100EB00088E4808389E4818384E482831D969C9105
:100EC0001D979F709F5B93831D968D919C9124E04D
:100ED000969587952A95E1F78F708F5B848385E0DF
:100EE0000895EF92FF920F931F93CF93DF93FB012F
:100EF0002081213889F52381223271F5DC01129697
:100F00004C91248135814217130631F58C01FC0187
:100F1000C385D485F12CE12C209791F04C815D8123
:100F20006A817B818E81811180E80E9416048F3F47
:100F3000980759F0E80EF91E0990D881C02DECCF22
:100F400081E0D8011F968C93C701DF91CF911F914B
:100F50000F91FF90EF90089590E080E0F6CFCF934F
:100F6000DF93CDB7DEB769970FB6F894DEBF0FBE3B
:100F7000CDBFFC01DB018C918F5F8C939E012D5FB7
:100F80003F4F8DE0D9011D928A95E9F729E0298329
:100F900084E08A8391E09D8383E08E832A8721E227
:100FA0002B879C879D879F8722E2288B27E02B8BAE
:100FB00025E02C8B8E8B20E430E0388F2F8B998F9F
:100FC00082818B8395858685998B8A8B83818068C6
:100FD0008D8B49E150E0BE016F5F7F4F80E00E9442
:100FE000160469960FB6F894DEBF0FBECDBFDF9131
:100FF000CF910895CF93DF938091C102811167C093
:1010000081E08093B4028093B5022AEB32E0309302
:10101000B7022093B6021092B9021092B8022DE1E5
:1010200031E03093B1022093B0021092BC021092D2
:10103000BB021092BE021092BD028093BF02809349
:10104000C00281EC8093BA020E945D05FC0181819F
:101050009091B402482F490F5527551F483051052C
:101060009CF5A281B381109709F520EB32E0338320
:10107000228320812093B2028093B3028091B50233
:10108000820F80832091B602A22FB091B7028A2FDF
:10109000821B8917C8F481813D91C82FD0E0C050D0
:1010A000DF4F38838F5F8183F2CFD90118962D915E
:1010B0003C91199721153105C1F720EB32E01996C3
:1010C0003C932E931897D5CF81E08093C10280EB9B
:1010D00092E0DF91CF910895CF92DF92EF92FF924D
:1010E0000F931F93CF93DF93D901E7016901F801B3
:1010F0002017310714F06801F90190E080E06623C1
:10110000B9F1CA014C155D050CF4C6019F018E179B
:101110009F070CF49C010A171B0734F4CF01821BB4
:10112000930B9C012C0D3D1D0D2C000CEE08FF08AF
:10113000032E000C440B550B2C193D094E095F0979
:10114000AEEFBFEF0E94C42A9F01FF0F440B550B67
:101150002C193D094E095F090E94A52ADA01C9012F
:101160008F5F9F47A109B1098883998382E090E04E
:10117000DF91CF911F910F91FF90EF90DF90CF9073
:10118000089520918D02260F3327331F2132310518
:10119000ECF420916D03FC0190E080E0243069F0D4
:1011A00082E00895A0918D022191AC0143595D4FD9
:1011B000A40FB52FB11D2C930196861798F380913B
:1011C0008D02680F60938D0280E0089581E008959C
:1011D00010926D0381E080936C031092470361E0ED
:1011E00082E00E949A0161E083E00E949A01E9EBAB
:1011F000F0E080818E7F808380818D7F808388E492
:101200008093B80085E48093BC0008951092260373
:101210001092250310927403109296030E94E8081E
:101220008EE691E090932403809323038FE691E070
:1012300090932203809321030895CF93DF9391E04D
:1012400090936C028823B9F0C091B800D091BA0095
:101250008091BC008A7B8093BC0060E082E00E94A9
:101260009A0160E083E00E949A010E94E808D0930E
:10127000BA00C093B800DF91CF9108958F929F92EA
:10128000AF92BF92CF92DF92EF92FF920F931F9394
:10129000CF93DF93D0919603D13208F0D7C0182FA7
:1012A000C09195030E945E036B017C0180916D03E8
:1012B00081116BC082E080936D0310936C038FEFFC
:1012C00080936B0310926A03D0936903A5E7B3E0A0
:1012D000E9E4F3E080E0D81391C0109248038091D4
:1012E0004803CC0FC82BC09348038091470381303B
:1012F00009F088C0109247030E945E036B017C01D5
:10130000809148038093BB0080916F03909170039C
:10131000A0917103B0917203892B8A2B8B2BA1F0C2
:101320000E945E0300916F0310917003209171037E
:10133000309172036C197D098E099F0906171707F2
:101340002807390708F442C08091BC0083FDD8CF3C
:1013500085EC8093BC000E945E036B017C01809150
:101360006D03823009F450C080916B038F3F09F404
:101370006FC080916B03803209F46CC080916B0365
:10138000803309F469C084E026C080916F03909196
:101390007003A0917103B0917203892B8A2B8B2B60
:1013A00009F484CF0E945E0380906F0390907003D5
:1013B000A0907103B09072036C197D098E099F098A
:1013C00086169706A806B90608F070CF80916E03BE
:1013D0000E941D0985E010927403109296031092EA
:1013E0007303DF91CF911F910F91FF90EF90DF90EA
:1013F000CF90BF90AF909F908F9008959D919193C3
:101400008F5F69CF85EEA5CF80916F0390917003B8
:10141000A0917103B0917203892B8A2B8B2B09F455
:101420009ECF0E945E0300916F0310917003209184
:101430007103309172036C197D098E099F0906179B
:1014400017072807390708F08ACFC0CF81E0C3CF3C
:1014500080E0C1CF82E0BFCF83E0BDCF1F93CF93A9
:10146000DF93EA01122FDC0111968D919C91DC0132
:10147000ED91FC910280F381E02D0995C817D90701
:1014800029F4812F0E943E0991E0811190E0892F7B
:10149000DF91CF911F910895CF93DF93EC018B8162
:1014A0008823A1F0888191E0909373038093950342
:1014B000109274031092960381E00E943E0991E01D
:1014C000811190E0892FDF91CF9108950E94060944
:1014D00081E08B83CE010E944C0A982F8111E2CFCC
:1014E000F1CF8F929F92AF92BF92CF92DF92EF9205
:1014F000FF920F931F93CF93DF93D82FC62F142FF4
:10150000613208F09CC00E945E036B017C018091F7
:101510006D0381116FC081E080936D0310936C03A4
:101520009FEF90936B0310926A039C0F9093690353
:101530008093480380914803DD0FD82BD093480354
:1015400080914703813009F07CC0109247030E94CC
:101550005E036B017C01809148038093BB00809106
:101560006F0390917003A0917103B0917203892B66
:101570008A2B8B2BA1F00E945E0300916F031091C8
:10158000700320917103309172036C197D098E09EB
:101590009F09061717072807390708F44CC08091E0
:1015A000BC0083FDD8CF85EC8093BC000E945E0315
:1015B0006B017C0180916D03813009F444C08091FE
:1015C0006A038C1710F4C0916A03E9E4F3E0A7E220
:1015D000B3E080E08C1359C08C2FDF91CF911F9125
:1015E0000F91FF90EF90DF90CF90BF90AF909F90C2
:1015F0008F90089580916F0390917003A091710373
:10160000B0917203892B8A2B8B2B09F480CF0E9417
:101610005E0380906F0390907003A0907103B09070
:1016200072036C197D098E099F0986169706A80614
:10163000B90608F06CCF80916E030E941D09C0E0CE
:10164000CBCF85EEB1CF80916F0390917003A091C5
:101650007103B0917203892B8A2B8B2B09F4AACFCB
:101660000E945E0300916F0310917003209171033B
:10167000309172036C197D098E099F0906171707AF
:101680002807390708F096CFD6CF91919D938F5FA9
:10169000A1CF0895E091260380912503E81730F447
:1016A000F0E0E95DFC4F808190E008958FEF9FEFBF
:1016B000089590912603809125032FEF3FEF98170F
:1016C00048F4E92FF0E0E95DFC4F208130E09F5FB6
:1016D00090932603C90108958091250390912603D4
:1016E000891B990B0895CF92DF92EF92FF920F938F
:1016F0001F93CF93DF937C01CB018A012091730369
:10170000222389F0EB016B01C40ED51ECC15DD053B
:1017100069F06991D701ED91FC910190F081E02D84
:10172000C7010995F3CF642F0E94C108C801DF915A
:10173000CF911F910F91FF90EF90DF90CF90089580
:10174000CF93DF931F92CDB7DEB7698320917303E8
:101750002223F9F020919603203258F021E030E066
:10176000FC013383228390E080E00F90DF91CF91E2
:10177000089580917403E82FF0E0EB58FC4F9981B5
:1017800090838F5F809374038093960381E090E051
:10179000ECCF61E0CE0101960E94C108F7CF90E046
:1017A00080E00895CF93DF93EC0188819981DC017B
:1017B000ED91FC910190F081E02D09952A813B810A
:1017C000820F931F9B838A83DF91CF910895982F77
:1017D00080336CF08A3324F08F3524F08B3724F477
:1017E00081E0089581341CF081E09B350CF080E0AD
:1017F0000895CF93DF93EC0188819981DC01ED910D
:10180000FC910280F381E02D09952A813B81820FB2
:10181000931F9B838A83DF91CF9108958F929F922C
:10182000AF92BF92CF92DF92EF92FF920F931F93EE
:10183000CF93DF93CDB7DEB766970FB6F894DEBFD0
:101840000FBECDBF6C018E01095E1F4F78018AE08B
:10185000882E912CA12CB12CCB01BA01A5019401A9
:101860000E94062B942F852F605DF80162938F01F3
:10187000A901692F782F411551056105710561F79F
:10188000A7014E1B5F0BBF01C6010E94F90B6696B4
:101890000FB6F894DEBF0FBECDBFDF91CF911F9181
:1018A0000F91FF90EF90DF90CF90BF90AF909F90FF
:1018B0008F900895FC018685811114C0A185B285A1
:1018C000838594852FEF3FEFA817B90730F4CD013A
:1018D0000196928781872C9130E037FD20E02587A3
:1018E00081E08687858508951F93CF93DF93EC0170
:1018F000162F0E945A0C811306C01E8681E0DF91CC
:10190000CF911F91089580E0FACF0F931F93CF934B
:10191000DF938C01EB018991882369F0C8010E9453
:101920005A0C882379F0FE013197908198130DC0ED
:10193000F8011686F0CF90E080E0DF91CF911F9103
:101940000F91089582E090E0F8CF83E090E0F5CF2A
:10195000CF93DF93EC01CE010E945A0C8B304CF4F4
:1019600089305CF4882359F081E0888790E080E03A
:101970000BC08D3011F08032B9F71E86ECCF888510
:10198000811105C081E090E0DF91CF91089582E060
:1019900090E0FACF0F931F93CF93DF93DB01129662
:1019A0002D913C91EC01E881F9818A819B81DF01D5
:1019B000A20FB31FA817B907A8F44C9141110EC08C
:1019C000EB01A881B981EF018D01020F131FA01750
:1019D000B10751F05D9149915417C9F341914111FB
:1019E000FDCFE5CFF0E0E0E0CF01DF91CF911F9197
:1019F0000F910895FC0124813581A9014F5F5F4F4C
:101A0000868197814817590748F4828193815583CD
:101A10004483FC01E20FF31F608308950190F0817D
:101A2000E02D81E0808708959F92AF92BF92CF9280
:101A3000DF92EF92FF920F931F93CF93DF9300D02B
:101A400000D01F92CDB7DEB78C010E945A0CD82E61
:101A5000D8011E961C92F12CE12C60EFC62EC80115
:101A60000E945A0CF8011686D81609F4B4C08111E8
:101A700013C082E090E00F900F900F900F900F90A6
:101A8000DF91CF911F910F91FF90EF90DF90CF905A
:101A9000BF90AF909F9008958C3509F09AC0C8010F
:101AA0000E945A0C882329F3EBE5F1E0853709F011
:101AB00084C0D8011E961C9254E0952EB12CA12C06
:101AC000C8010E945A0C8823A1F2813434F4805357
:101AD000803130F083E090E0CECF8F7D8753F8CF18
:101AE00044E0AA0CBB1C4A95E1F7A82AF801168627
:101AF0009A949110E5CFC501985D8115944020F42A
:101B00007501F3E0FF22ABCFC5019C5D81159440C8
:101B1000A8F483E0B822B701762F6627770F770FF6
:101B20006A297B2990E080E0019660387105810583
:101B3000910540F4C8010E94FA0C91CFB50190E0E4
:101B400080E0F3CF1982262F2F7320682A8326E0A6
:101B500096958795779567952A95D1F760327105A7
:101B600080F4606C6B835E01A4E0AA0EB11CD50109
:101B70006E915D01662309F472CFC8010E94FA0CD0
:101B8000F6CF262F2F7320682B8386E076956795F6
:101B90008A95E1F76031710538F4606E6C835E01FF
:101BA000B5E0AB0EB11CE3CF60686C83CD825E0103
:101BB000E6E0AE0EB11CDBCF32969081992309F49A
:101BC00089CF8913F9CF8181882309F483CFF80164
:101BD0001686682FAFCF0190F081E02D8085882395
:101BE00019F084E090E047CF90E080E044CF4F923E
:101BF0005F926F927F928F929F92AF92BF92CF929D
:101C0000DF92EF92FF920F931F93CF93DF93EB013D
:101C1000DC012C912B32D9F12D32D1F50196FF2424
:101C2000F394FC01208130ED320F3A3018F02E325F
:101C300009F042C18C0160E070E0CB01F801219114
:101C400030ED832E820E39E0381520F16A3949E9EA
:101C50007407840749E1940738F5AAE0B0E09B01D6
:101C6000AC010E94C42A912CB12CA12C2401350175
:101C7000409450946094709446165706680679060E
:101C800098F0680D791D8A1D9B1D8F01D7CF019695
:101C9000F12CC7CF211108C0FF20E9F16130710597
:101CA000810550E89507A0F0E12CBAE08B2E912C2D
:101CB000A12CB12C6115710530E883079105B0F1B5
:101CC000A50194010E94062BCA01B901E394F2CF49
:101CD0002C8120782A602C839B01AC0188279927CE
:101CE000DC01821B930BA40BB50B88839983AA8319
:101CF000BB838F2DDF91CF911F910F91FF90EF90BC
:101D0000DF90CF90BF90AF909F908F907F906F901B
:101D10005F904F9008952C81207828602C836883F1
:101D200079838A839B83FF24F394E3CFF801D8015E
:101D30002D918D0130ED320F3A3010F4E394F6CF4F
:101D40002E3201F58F010F5F1F4FF8010F5F1F4FFC
:101D50002081A0EDDA2ED20EB9E0BD1598F06C3CD2
:101D6000ECEC7E07ECE08E07910578F7AAE0B0E096
:101D70009B01AC010E94C42A6D0D711D811D911D36
:101D8000EA94E3CF20812F7D10E000E0253409F0B4
:101D90005BC021812D32D1F53296CC24C394DF0172
:101DA00010E000E02E2D0E2C000C330B5AE0B52E67
:101DB000FD01DD9040ED4D0D4A3008F040C0B09E71
:101DC000A001B19E500D11240D2DDD0C110B0053FF
:101DD0001109040F151FA801420F531F4732510567
:101DE0003CF38C81CC20C9F040E050E060E070E82A
:101DF000F11003C040E050E0BA0180788C608C8321
:101E0000488359836A837B83FC2C73CF2B3219F070
:101E10003196C12CC4CF3296FCCF40E050E060E850
:101E20007FEFF11004C040E050E060E87FE7807889
:101E30008C608C83488359836A837B8374CFCC20E6
:101E400019F01195019511092081211135C00E0D50
:101E5000111DE7FC1A950E94702934ECC32E30E066
:101E6000D32E101611063CF01195019511094CEA7C
:101E7000C42E40E0D42EE12C0115110591F000FF95
:101E80000CC024E0E29EF0011124EC0DFD1D259113
:101E90003591459154910E94D12915950795E39468
:101EA000EBCFF11090582C8120782C602C83688324
:101EB00079838A839B8337CFF12C1BCFCF92DF921C
:101EC000EF92FF92CF93DF9300D000D01F92CDB757
:101ED000DEB7FC0184818F778630B9F028F4843036
:101EE00088F590E080E013C08A30E9F08C30B9F1D9
:101EF0008830B9F780819181A281B381811520E872
:101F00009207A105B10568F702C0808190E00F90AB
:101F10000F900F900F900F90DF91CF91FF90EF9067
:101F2000DF90CF90089580819181A281B381AC012F
:101F3000BD0150586F4F7F4F4115510561407105EC
:101F400080F6E5CF808191811D82BE016F5F7F4F5A
:101F50000E94F70DCE0101960E945E0FD8CFC0807F
:101F6000D180E280F38020E030E040E057ECC70110
:101F7000B6010E94082C87FDB4CF20E03EEF4FEF62
:101F800056E4C701B6010E946B2918160CF4A9CFBC
:101F9000C701B6010E94D22BCB01B9CFCF93DF93FB
:101FA000DC01EB01EC81FD818A819B810896E817B9
:101FB000F90740F481E08887F0E0E0E0CF01DF91AD
:101FC000CF9108953897FD83EC833097B9F312963B
:101FD000CD91DC911397209791F0CF018C1B9D0B35
:101FE00023E0959587952A95E1F78D831396FC93C9
:101FF000EE9312971582148217821682DFCF119604
:10200000FC93EE93F3CFCF92DF92EF92FF920F9378
:102010001F93CF93DF9300D000D0CDB7DEB76C0114
:102020008B01DC011296ED90FC90FA82E9827C83B0
:102030006B83BE016F5F7F4F0E94CA0C009761F4F3
:10204000F701E00FF11FCF010196D60113969C9383
:102050008E9312971082C7010F900F900F900F90E0
:10206000DF91CF911F910F91FF90EF90DF90CF9074
:102070000895FC012581222339F0F8E02F02900118
:102080001124820F931F089590E080E00895FC01D1
:1020900001900020E9F73197AF01481B590BBC01B3
:1020A00084E394E00C9480068F929F92AF92BF924B
:1020B0000F931F93CF93DF93CDB7DEB7A1970FB6E2
:1020C000F894DEBF0FBECDBF19A2423008F44AE03B
:1020D0008E010F5D1F4F842E912CB12CA12CA501D8
:1020E00094010E94062BE62FB901CA01EA30F4F4EC
:1020F000E05DD801EE938D01232B242B252B79F75E
:1021000090E080E0109719F0CD010E944710A19651
:102110000FB6F894DEBF0FBECDBFDF91CF911F91F8
:102120000F91BF90AF909F908F900895E95CE1CFA1
:10213000CF93DF930E944710EC0187E891E00E9463
:1021400047108C0F9D1FDF91CF910895CF93DF93A0
:102150006115710589F1EB01FC0180819181009786
:1021600069F1FC01A681B781FE0101900020E9F729
:102170003197AF014C1B5D0B30E020E0109749F028
:10218000FD0101900020E9F79F01215031092A1B30
:102190003B0B4217530769F49E01BA016C0F7D1F78
:1021A0006217730759F0F90151919F014D9154172E
:1021B000B9F30E943910D3CF90E080E0DF91CF9146
:1021C00008959F92AF92BF92CF92DF92EF92FF92CB
:1021D0000F931F93CF93DF93EC017B01D42E0E94CA
:1021E000A80C8C01892B09F052C0CE010E945A0C18
:1021F000863609F455C194F5873229F08B35D1F133
:10220000823209F056C1E881F981828193819B83F2
:102210008A838481958122813381821B930B9F83E2
:102220008E831D821C82892B11F481E08087CE0170
:102230000E94140D8C01892B51F5AC80BD80B50135
:10224000888199810E940310F701248120782560FC
:10225000248391838083B382A28219C0843709F4D6
:1022600008C18B3709F453C08E3609F022C167E7E5
:1022700071E008C1F70184818078806484831182D1
:10228000108213821282D1100FC005E010E0C80145
:10229000DF91CF911F910F91FF90EF90DF90CF9042
:1022A000BF90AF909F9008951E86CE010E94A80C0B
:1022B000009709F02DC16DE5CE010E94740C8111CB
:1022C000E6CFDA946F857889C7010E94CE0F009718
:1022D00009F46EC04D2DBC01CE010E94E1100097A3
:1022E00009F016C1CE010E94A80C009709F010C198
:1022F0006DE5CE010E94740C8111C9CF6CE2CE0154
:102300000E94740C8111DECF03E010E0C0CFF70112
:102310008481807880628483118210821382128289
:10232000DD2009F4B2CF1E86CE010E94A80C0097D2
:1023300009F0EEC06DE7CE010E94740C8111A7CFA9
:10234000BB24B394DA94E881F981828193819B83E1
:102350008A838481958122813381821B930B9F83A1
:102360008E831D821C82892B09F4B086CE010E94C7
:102370005A0C873201F18232F1F0CE010E945A0CE0
:10238000182F0E94E70B882309F4BECF1E86612F09
:10239000CE010E94FA0CCE010E945A0C182F0E9406
:1023A000E70B8111F3CFE881F9818085882351F013
:1023B00004E010E06CCFCE010E94140D8C01892B3B
:1023C00009F065CFCE010E94A80C8C01892B09F081
:1023D0005ECF6AE3CE010E94740C882309F494CF87
:1023E000EA81FB818C819D81E80FF91F10820C81AD
:1023F0001D816A817B81C7010E94A610BC01892BC7
:10240000A1F4B801888199810E9403108C016F8525
:102410007889C7010E94CE0FFC01892B49F2848183
:102420008068848317830683BF014D2DCE010E94EF
:10243000E1108C01892B09F02ACFCE010E94A80C53
:102440008C01892B09F023CF6DE7CE010E94740C1B
:1024500081111DCF6CE2CE010E94740C882309F417
:1024600053CFCE010E94A80C8C01892B09F46BCFAD
:102470000ECFF701848180788660848381E0808339
:102480006CE671E0CE01DF91CF911F910F91FF902B
:10249000EF90DF90CF90BF90AF909F900C94850C01
:1024A000F7018481807886608483108261E771E01F
:1024B000E9CFCE010E945A0C5E01F1E1AF0EB11CD2
:1024C000D12C9A2CCB2C803374F08A3374F49FE394
:1024D000D91699F01E86D394F50181935F01CE0140
:1024E0000E945A0CF0CF8B3291F393ED980F9230FB
:1024F00070F3982F9F7D953451F3CD0DD11D198A1E
:10250000B701892D9C2D0E94F70D8111C0CEFCCE04
:102510008C01BDCECF93DF93EC0190919D04892F68
:102520008F7761F49078906290939D0410929A0452
:102530001092990410929C0410929B0480919D0427
:1025400085FF1AC02097C1F0BE0189E994E00E947E
:10255000A610009771F460E974E089E994E00E94A4
:10256000CE0F009731F0FC0124812F772483D7838D
:10257000C683DF91CF91089590E080E0FACF009775
:1025800029F0FC01248125FD0C94A61090E080E048
:102590000895FC01948190786115710519F4948374
:1025A00081E00895DB010D900020E9F71197A61B4B
:1025B000B70B9460948371836083B383A283F0CF5D
:1025C000FB0101900020E9F73197AF01461B570B43
:1025D0000C94F90B1F93CF93DF93EBE5F1E012819D
:1025E000112379F0329621816213F9CFEC016CE569
:1025F0000E94D20B612FCE01DF91CF911F910C94DD
:10260000D20B6111F9CF6CE771E0DF91CF911F918F
:102610000C94E0120F931F93CF938C01C0E0F8014C
:102620008481C81738F463E871E0C8010E94E012A1
:10263000CF5FF5CFCF911F910F9108952F923F92C9
:102640004F925F926F927F928F929F92AF92BF92C2
:10265000CF92DF92EF92FF920F931F93CF93DF936E
:10266000CDB7DEB76C970FB6F894DEBF0FBECDBF07
:10267000FC018B0194819F77963009F4D2C298F4C3
:102680009230D8F0C280D380A080B180943008F01E
:1026900093C2A601B501C8010E94F90BD801129698
:1026A0008D919C911EC29C3009F446C048F498302C
:1026B00009F4AFC29A3009F495C267E771E038C0F7
:1026C000903209F427C29034C1F7E080F1806EE8BF
:1026D00071E0E114F10461F16AE871E0C8010E945F
:1026E000E012D80114968C9114978F5F14968C93F6
:1026F000C8010E940A13B801C7010E941E13C70136
:102700000E9439107C0166E871E0892B11F467E8BA
:1027100071E0C8010E94E012E114F10449F7F801E8
:10272000848181508483C8010E940A136FE871E09C
:10273000C8010E94E012B2CFC080D180E280F38055
:10274000A7019601C701B6010E946B29882331F0C9
:1027500067E771E0C8010E94E012C0C120E030E0EC
:10276000A901C701B6010E946B29882371F0A70156
:102770009601C701B6010E94662B9B01AC01C701FF
:10278000B6010E946B29882319F320E030E0A901EB
:10279000C701B6010E946B2987FF08C06DE2C8011E
:1027A0000E94D20BF7FAF094F7F8F09420E836E99B
:1027B00048E15BE4C701B6010E94082C87FD83C095
:1027C00074E1872E912CE0E2AE2EB12C712C612C9D
:1027D000F401EC53FF4F2591359145915491C70178
:1027E000B6010E94082C87FD0FC0F401E455FF4F8D
:1027F0002591359145915491C701B6010E94D12987
:102800006B017C016A0C7B1CB594A79424E0821AAE
:1028100091083CEF83163FEF9306D1F68FEF8F8B35
:1028200020E030E0A901C701B6010E94082C18166B
:102830000CF051C02CEA35EC47E257E3C701B60172
:102840000E946B2918160CF446C0AF89B4E0AB02A5
:10285000C0011124912C812CFC01E455FF4F1F0174
:102860009C012C533F4F29013F893F3F09F433C05E
:10287000F101E80DF91D659175918591949120E024
:1028800030E040E251E40E94D129A70196010E9464
:10289000082C18167CF4F201E80DF91D25913591EC
:1028A00045915491C701B6010E94D1296B017C0169
:1028B0006A187B08B594A7948F8981508F8B94E018
:1028C000891A9108D1CF50E2A52EB12C95E09F8BAB
:1028D000712C612CA5CFC701B6010E94D92B4B01E9
:1028E0005C011B012C01A6E0AC8F80E492E4AFE018
:1028F000B0E0888F998FAA8FBB8F9C8D9F8BA92F5B
:10290000A150AC8FBAE02B16310441045104C8F039
:10291000688D798D8A8D9B8D2AE030E040E050E013
:102920000E94062B288F398F4A8F5B8FC201B1011D
:102930002AE030E040E050E00E94062B19012A0115
:10294000DCCFC501B4010E9470299B01AC01C70115
:10295000B6010E94652B6B017C01688D798D8A8D93
:102960009B8D0E9470299B01AC01C701B6010E949A
:10297000D1291B012C010E94D92B6B017C010E94E3
:1029800070299B01AC01C201B1010E94652B9B0122
:10299000AC010E94662B0E94D92BC60ED71EE81EE2
:1029A000F91E888D998DAA8DBB8DC816D906EA06A9
:1029B000FB06C0F09FEF891A990AA90AB90A6114A7
:1029C000710439F1AAE08A169104A104B10408F156
:1029D000BFEF6B1A7B0AC12CD12C7601812C912C74
:1029E000540183942AE0222E312C412C512CC70112
:1029F000B601A20191010E94062B672B682B692B5F
:102A000061F4EF891E164CF469017A01E150EF8BF5
:102A1000EECFC12CD12C7601E5CFB501A401C801C0
:102A20000E940E0CFF89FF2391F14E0121E1820EDD
:102A3000911CF88F54019AE0292E312C412C512CF5
:102A4000388D3150388F3F3F69F0C701B601A20180
:102A500091010E94062B605DD4016E934D016901C6
:102A60007A01EECFBF898B2F90E0BC016095709505
:102A7000F501E81BF90B31978EE280834427552737
:102A8000461B570B6A0D7B1DC8010E94F90B611490
:102A9000710421F165E6C8010E94D20B730177FE33
:102AA00007C06DE2C8010E94D20BF194E194F108D5
:102AB000FE0177969F018AE0C82ED12CC701B6018E
:102AC0000E94372B805D82937B01672BB9F7A901A8
:102AD0004E1B5F0BBF01C8010E94F90BF8018281F8
:102AE00093816C960FB6F894DEBF0FBECDBFDF9119
:102AF000CF911F910F91FF90EF90DF90CF90BF90FB
:102B0000AF909F908F907F906F905F904F903F908D
:102B10002F900895E080F18068E971E0E114F104FC
:102B200009F418CE61E971E0C8010E94E012F801D1
:102B300084818F5F8483C8010E940A13D70116968F
:102B4000AC9016971796BC9062E2C8010E94D20B17
:102B50006501F60161916F01662321F0C8010E94B1
:102B6000EA12F7CF62E2C8010E94D20B65E971E078
:102B7000C8010E94E012B801C7010E941E13C701DC
:102B80000E9439107C0166E871E0892B11F467E836
:102B900071E0C8010E94E012E114F10461F6D8016D
:102BA00014968C911497815014968C93C8010E94AE
:102BB0000A1369E971E0CECD62E2C8010E94D20B2E
:102BC0007501CE0CDF1CCE14DF0439F0D7016D91F6
:102BD0007D01C8010E94EA12F6CF62E2C8010E949C
:102BE000D20B7CCFC080D180E280F380B701A601F8
:102BF000F7FE0BC06DE2C8010E94D20B4427552797
:102C0000BA014C195D096E097F09C8010E940E0CBA
:102C100065CF4081518162817381C8010E940E0C91
:102C20003DCD80816CE671E0811194CD61E771E06A
:102C300091CDCF92DF92EF92FF920F931F93CF939C
:102C4000DF93CDB7DEB729970FB6F894DEBF0FBE7E
:102C5000CDBF6C0180919004909191049093930466
:102C60008093920480919604909197049093950498
:102C7000809394041092980480919D0480788093AE
:102C80009D048BE991E00E948A12009721F06FE980
:102C900071E00E94C9128EEA91E00E948A120097A8
:102CA00021F063EB71E00E94C91286EB91E00E9473
:102CB0008A128C01892B51F0F601E080F180E11439
:102CC000F10409F5F80184818078848384E394E039
:102CD0009A8389831C821B821D82BE016F5F7F4F96
:102CE00089E994E00E941E1329960FB6F894DEBF7E
:102CF0000FBECDBFDF91CF911F910F91FF90EF904D
:102D0000DF90CF900895C480D580FF82EE82D9866F
:102D1000C886BE016A5F7F4F80E994E00E94CA0CBA
:102D2000009751F5809192049091930496012F5F42
:102D30003F4F280F391F409194045091950442173A
:102D4000530720F481E080939804BCCF3093930420
:102D500020939204009709F4B5CFF701DC01A70195
:102D60004C0D5D1D4E175F0719F021912D93FACF81
:102D7000FC01EC0DFD1D1082F801248120782560F6
:102D8000248391838083D382C282A0CFCF93DF93A9
:102D900000D000D01F92CDB7DEB780919004909103
:102DA000910490939304809392048091960490915F
:102DB00097049093950480939404109298048091C2
:102DC0009D04807880939D048BE991E00E948A1293
:102DD000009721F06FE971E00E94C9128EEA91E03C
:102DE0000E948A12009721F062EC71E00E94C912E1
:102DF00084E394E09A8389831C821B821D82BE0136
:102E00006F5F7F4F89E994E00E941E130F900F902F
:102E10000F900F900F90DF91CF910895CF93DF9394
:102E2000DC0114969C9114979F77963029F038F422
:102E3000923060F09430D0F480E090E00FC09C308D
:102E4000D9F378F49830C1F39A30B1F381E090E08F
:102E5000FB0120813181232B09F080E0DF91CF91AC
:102E60000895903249F3903489F7E6CF12964D9148
:102E70005C911397EB01E881F981309759F1EF01EB
:102E800009900020E9F79E01215031092E1B3F0BCC
:102E90000D90BC91A02DBA012417350708F4B90193
:102EA0006A0F7B1FA617B70781F08D91C1918C1710
:102EB000C9F3082E000C990B8C1B9109C7FD939543
:102EC0001816190674F482E0B8CF4217530720F49D
:102ED00084E0B3CF30E020E024173507A0F381E091
:102EE000ACCF892BA9F7FBCF2F923F924F925F92E5
:102EF0006F927F928F929F92AF92BF92CF92DF920A
:102F0000EF92FF920F931F93CF93DF93CDB7DEB76E
:102F100028970FB6F894DEBF0FBECDBF9E838D837A
:102F20002A013B01DC01ED90FC90F701228447016E
:102F3000FDE08F0E911CD70118969C911897199659
:102F40008C91199799838A83CD90DC901197C11445
:102F5000D10409F46BC01B964C9150E0F6018481BA
:102F600095818417950708F4CDC0808191E09093F6
:102F7000730380939503109274031092960320E0DC
:102F8000BE016F5F7F4FC6010E942E0A882309F49D
:102F9000B9C0312CB12CA12CA214B30408F068C024
:102FA000D60114968D919C9181010A191B098017F5
:102FB000910708F48C0141E0C101801B910BA81618
:102FC000B90608F440E0602F013208F060E2F60133
:102FD00080810E94710A1092260380932503801736
:102FE000110609F08FC094012A0D3B1D38872F83ED
:102FF0003C832B838B819C81AF81B8858A1B9B0B83
:103000008017910780F4F60181819281DC01ED91B6
:10301000FC910284F385E02D0995EB81FC8181937D
:10302000FC83EB83E7CFA00EB11EB6CF1296ED91D5
:10303000FC911397309709F449C016966D917C91D5
:103040001797022D10E01B964C9150E063307105EC
:1030500069F5816089839A834F5F5F4F9401BE0158
:103060006F5F7F4FCF010E94E702882309F44AC0B7
:10307000F701428550E090E080E000E010E0980128
:10308000841795070CF041C0322F212F102F0027F5
:10309000D7011C966C91611130C0FA01E81BF90B45
:1030A000EE0DFF1D6485062B0196EACF61157105B3
:1030B00019F490689983D2CF6230710511F49F772B
:1030C000F9CF6130710551F6906CF4CF1496ED9103
:1030D000FC9115973097B1F08085882399F0048092
:1030E000F581E02D309771F0222D30E0A4011B9680
:1030F0006C91CE0101960995B8CFF701E80FF91F41
:103100006585D1CF0FEF1FEF9801ED81FE81A08182
:10311000B1811A968C911A97853008F074C092810B
:1031200041E050E002C0440F551F9A95E2F741502C
:103130005109052E000C660B770B93816A017B0108
:10314000092E04C0CC0CDD1CEE1CFF1C0A94D2F727
:10315000C094D094E094F0940C211D212E213F21A5
:10316000442255226622772204C0440C551C661C5A
:10317000771C9A95D2F7402A512A622A732A5196CF
:103180004D925D926D927C92549730E020E0E82E53
:10319000F12C2E153F05BCF41C968C911C978111C7
:1031A0000BC0FD01E20FF31F4586452C562C672C02
:1031B00077242F5F3F4FEDCFF701E21BF30BEA0FB0
:1031C000FB1F4486F2CF6D01FDE0CF0ED11C189697
:1031D0009C91189719968C91199799838A83AD9031
:1031E000BC901197A114B10409F44DC01B960C9129
:1031F00010E098012E0D3F1DD50114968D919C91E4
:103200008217930710F480E016C0F5018181928146
:10321000208131E03093730320939503109274035F
:103220001092960301151105F9F421E0A701B601EA
:10323000C5010E942E0A28960FB6F894DEBF0FBE75
:10324000CDBFDF91CF911F910F91FF90EF90DF9055
:10325000CF90BF90AF909F908F907F906F905F9036
:103260004F903F902F900895DC01ED91FC910280EA
:10327000F381E02DA801BE016F5F7F4F099508170C
:10328000190709F6D2CF1296ED91FC91139730975A
:1032900049F116962D913C9117971B960C9110E0D1
:1032A0002330310571F48E7F89839A830F5F1F4F1E
:1032B0009E012F5F3F4FA701B601CF010E9423035C
:1032C000BACF2115310519F49F779983F1CF2230B8
:1032D000310511F49068F9CF2130310549F79F7716
:1032E0009064F3CF1496ED91FC911597309709F403
:1032F0008ACF8085882309F486CF0680F781E02D68
:10330000309709F480CF9701A6011B966C91CE01EE
:103310000196099590CF0F931F93CF93DF93CDB76D
:10332000DEB7E2970FB6F894DEBF0FBECDBFDC016B
:1033300021E0683008F420E014963C91149780E076
:10334000393008F0822F90E01296ED91FC9113979E
:10335000309751F015964C91159750E0542F442713
:10336000550F5064842B952B4D915C9111971FA2A2
:1033700018A619A61AA6F98FE88F5F8B4E8B03E06B
:1033800010E01D8F0C8F71E079A39F8F8E8F1AA292
:1033900078A3393008F446C030E02C60309749F00B
:1033A00015968C9190E0982F8827990F9064282B80
:1033B000392B1A8A1B8A1C8A1D8AFC83EB835A8349
:1033C000498383E090E098878F8381E08C873A87F8
:1033D00029871D868B8767709E012A5E3F4F38AB19
:1033E0002FA789AB6AAB255131093CA72BA78DA725
:1033F0006EA740E050E0BA01CE018F960E9474178C
:1034000040E050E0BA01CE018B960E947417E2961C
:103410000FB6F894DEBF0FBECDBFDF91CF911F91E5
:103420000F91089526E030E0B9CF1F93CF93DF933B
:10343000CDB7DEB769970FB6F894DEBF0FBECDBF2C
:10344000DC01142F14968C91149729E030E0893018
:1034500030F021E0683008F420E0226130E012967C
:103460008D919C911397009751F01596EC911597BB
:10347000F0E0FE2FEE27FF0FF0642E2B3F2B4D9137
:103480005C911A8A1B8A1C8A1D8A9C838B835A83AF
:10349000498383E090E098878F8381E08C873A8727
:1034A00029871D868B879E012F5F3F4F3F8B2E8B79
:1034B000888F6770698F41E050E060E070E0111123
:1034C00003C040E050E0BA01CE0146960E94741756
:1034D00069960FB6F894DEBF0FBECDBFDF91CF91D6
:1034E0001F9108951F93CF93DF93EC01162F803126
:1034F000910534F4462F682F86E096E00E94151A55
:10350000BE01605171096031710540F4412F8CEFAB
:1035100095E0DF91CF911F910C94151ADF91CF9117
:103520001F910895FC0180819181009711F00C9406
:10353000A92C08950F931F93CF93DF93EC018881FB
:103540009981009759F02A813B812617370730F07F
:1035500081E0DF91CF911F910F9108958B016F5FF3
:103560007F4F0E94322D009759F0998388831B83E7
:103570000A832C813D81232B59F7FC011082E8CF6F
:1035800080E0E7CFEF92FF920F931F93CF93DF93EB
:10359000EC018B01198218821B821A821D821C8207
:1035A000CB010E9462297C01BC01CE010E949A1AC3
:1035B00028813981811113C02115310519F0C90104
:1035C0000E94A92C198218821D821C821B821A82D9
:1035D000DF91CF911F910F91FF90EF900895FD82A1
:1035E000EC82B801C901DF91CF911F910F91FF903B
:1035F000EF900C945B294F925F926F927F928F9223
:103600009F92AF92BF92CF92DF92EF92FF920F9371
:103610001F93CF93DF93CDB7DEB76C014DB65EB687
:103620003C012FE4620E711CF30180812DB73EB77F
:10363000281B31090FB6F8943EBF0FBE2DBF8DB7C2
:103640009EB701964C01F601A68CB12CDC0190E0EE
:1036500080E0F6018A159B054CF4228D338DF9012B
:10366000E80FF91F20812D930196F3CF878D8823D2
:1036700041F18689978928E097FD09C068E671E0E5
:103680000E944B2B6DE270E00E944B2B262FF6011F
:10369000808D918D68E097FD08C068E671E00E941A
:1036A0004B2B6DE270E00E944B2BF401EA0DFB1DE9
:1036B00030E1639FB0011124262B2083C5010196C0
:1036C0005C017401EA0CFB1CF60104A115A122A106
:1036D00033A14081518160A16170C6010E946C08D4
:1036E000A80EB91E7401EA0CFB1CF60100A511A579
:1036F00026A137A14281538160A166956170C60100
:103700000E946C08A80EB91E7401EA0CFB1CF6019D
:1037100004A515A522A533A54481558160A162FBAE
:10372000662760F9C6010E946C08A80EB91E7401D4
:10373000EA0CFB1CF60100A911A926A537A54681B4
:10374000578160A163FB662760F9C6010E946C087F
:10375000A80EB91E7401EA0CFB1CF60104A915A9F8
:1037600022A933A94085518560A162956170C60187
:103770000E946C08A80EB91E7401EA0CFB1CF6012D
:1037800000AD11AD26A937A94285538560A165FB1F
:10379000662760F9C6010E946C08A80EB91E740164
:1037A000EA0CFB1CF60104AD15AD22AD33AD468528
:1037B000578561A16170C6010E946C08A80EB91EF0
:1037C0007401EA0CFB1CF601E05CFF4F00811181E3
:1037D000F60126AD37AD4485558561A166956170CA
:1037E000C6010E946C08A80EB91E7401EA0CFB1CED
:1037F000F601EC5BFF4F008111813297208131810E
:10380000F6014089518961A162FB662760F9C60112
:103810000E946C08A80EB91E7401EA0CFB1CF6018C
:10382000E85BFF4F00811181329720813181F601E1
:103830004289538961A163FB662760F9C6010E9432
:103840006C088A0D9B1D7401E80EF91EF601E45BFD
:10385000FF4F00811181329720813181F601448927
:10386000558961A162956170C6010E946C080E9431
:10387000FA075C01F3014081F601E25BFF4F8081B2
:1038800050E07A01FFEFEF1AFF0A2DB73EB72E196D
:103890003F090FB6F8943EBF0FBE2DBF0DB71EB740
:1038A0000F5F1F4FEDB7FEB78183B401C8010196CA
:1038B0000E94EF2DF5018381A701B80180640E9469
:1038C0004D040FB6F8945EBE0FBE4DBEDF91CF9192
:1038D0001F910F91FF90EF90DF90CF90BF90AF902E
:1038E0009F908F907F906F905F904F90089585ED9F
:1038F0008093BC0080916F0390917003A09171033D
:10390000B09172030796A11DB11D23E0B695A7954E
:10391000979587952A95D1F72091BC0024FD03C087
:1039200010926D03089540916F0350917003609160
:10393000710370917203452B462B472B69F3009757
:10394000A105B10541F02AE22A95F1F700C00197DF
:10395000A109B109E1CF80916E030C941D091F925A
:103960000F920FB60F9211242F933F938F939F9333
:10397000AF93BF938091170390911803A0911903FF
:10398000B0911A033091160323E0230F2D3758F519
:103990000196A11DB11D20931603809317039093E8
:1039A0001803A0931903B0931A0380911B039091FD
:1039B0001C03A0911D03B0911E030196A11DB11D12
:1039C00080931B0390931C03A0931D03B0931E03CD
:1039D000BF91AF919F918F913F912F910F900FBE0B
:1039E0000F901F90189526E8230F0296A11DB11D78
:1039F000D2CF1F920F920FB60F9211248F939F93E5
:103A00008091E1009091E100937F9093E10083FF2A
:103A10000FC01092E90091E09093EB001092EC003F
:103A200092E39093ED001092200398E09093F000C1
:103A300082FF22C093E09093E9009091F2009923D5
:103A400019F09AE39093E8009091DA02992341F0FB
:103A50009091DA0291509093DA02911101C05D9A2F
:103A600090911F03992341F090911F0391509093DF
:103A70001F03911101C0289A84FF18C08091E200B1
:103A80008E7E81608093E2008091E1008F7E809342
:103A9000E1008091DB028E7E80618093DB029F914A
:103AA0008F910F900FBE0F901F90189580FFF7CF4A
:103AB0008091E2008E7E80618093E2008091E1003F
:103AC0008E7E8093E1008091DB028E7E8160E5CF67
:103AD0001F920F920FB60F921124CF92DF92EF92A6
:103AE000FF920F931F932F933F934F935F936F9387
:103AF0007F938F939F93AF93BF93EF93FF93CF9356
:103B0000DF93CDB7DEB76C97DEBFCDBF1092E90073
:103B10008091E80083FF25C068E0CE0145960E94B1
:103B2000E70482EF8093E8008D8987FF39C0909188
:103B3000E80090FFFCCF982F907609F034C19E8961
:103B40004F89588D2F89F88C911131C0803861F5DB
:103B50008091DC028093F1001092F1008EEF80934F
:103B6000E8006C960FB6F894DEBF0FBECDBFDF91B4
:103B7000CF91FF91EF91BF91AF919F918F917F91E5
:103B80006F915F914F913F912F911F910F91FF90F6
:103B9000EF90DF90CF900F900FBE0F901F90189571
:103BA0009EEF9093E800C7CF1092F100D5CF9130EF
:103BB00059F48111D3CF4130510581F68091DC0257
:103BC0008D7F8093DC02CACF933049F48111C6CF38
:103BD0004130510519F68091DC028260F2CF9530B8
:103BE00041F48091E80080FFFCCF20682093E3003F
:103BF000B5CF963009F0A9C00B8D1C8D22E0109234
:103C0000E9001092D8021092D702F2122EC0109240
:103C1000D6021092D5020E9471051F8299E0998305
:103C2000FA8291E09E8390EA98879AEF9987209193
:103C3000D7023091D802275F3F4F3C832B838D837F
:103C40001092E9001092D8021092D7021093D60277
:103C50000093D50249E050E0BE016F5F7F4F80E0E6
:103C60000E9416040E94710579CF1093D60200932A
:103C7000D5020E945D05DC0112960D911C91011583
:103C8000110509F451C1D801ED91FC910480F58131
:103C9000E02DBE016B5E7F4FC8010995009709F0CA
:103CA0003EC1F80100851185EACFF3E0FF120EC096
:103CB0008F89882309F440C0823061F440E860E1D4
:103CC00080E491E00E94E303811148CF81E2809378
:103CD000EB0047CF813029F440E86BE084E391E0CA
:103CE000F1CF833099F70E945D05DC011296ED90CB
:103CF000FC908E010F5F1F4F6801E114F10479F011
:103D0000D701ED91FC910680F781E02DB801C70144
:103D10000995080F111DF701E084F184EECFD80159
:103D20001C92F60101900020E9F73197BF016C1950
:103D30007D0940E0C601C6CF6EE171E0FB01449110
:103D400050E080E80E94160409CF973009F4BECFF6
:103D5000983021F481E08093F10000CF993009F090
:103D6000FDCE837009F0B2CFE1E0F1E081E031E017
:103D700096E32191222371F08093E9003093EB00C8
:103D8000DF0111972C912093EC009093ED008F5F51
:103D9000873079F78EE78093EA001092EA008F89E6
:103DA00080932003DBCE8B8D9C8D1092E9001092C6
:103DB000D8021092D7029093D6028093D502898DB3
:103DC000811192C08E899D89913A49F4813209F01E
:103DD0007DCF47E050E06BE071E080E0B3CF9132FF
:103DE00009F074CF833269F48F89988DB0E0A0E038
:103DF0008093070190930801A0930901B0930A01F1
:103E0000ADCE803269F48091E80082FFFCCF67E09C
:103E10008BE091E00E94E7048BEF8093E8009ECE58
:103E2000823209F09BCE8F8980931201EEEFFFE77B
:103E3000859194918B3F9C4D51F1E0E0F8E08091A9
:103E40000B0190910C01A0910D01B0910E01803BEE
:103E50009440A105B105F1F48091120180FD1AC0D2
:103E6000EE3F8AE0F80789F587E797E7918380833B
:103E7000809160008093D90288E19BE00FB6F894AE
:103E8000A895809360000FBE9093600067CEEEEF20
:103E9000FAE0D5CF808191818737974709F05ECED0
:103EA000A895809160008861809360008091D9021C
:103EB00080936000EE3F2AE0F20789F08091FE0ACD
:103EC0009091FF0A9183808349CE808191818737C9
:103ED000980751F29093FF0A8093FE0AC5CF109283
:103EE000FF0A1092FE0A3ACE0E945D05DC0112968E
:103EF0000D911C910115110509F4E8CED801ED9141
:103F0000FC910190F081E02DBE016B5E7F4FC801F6
:103F10000995811123CEF80100851185EBCF181684
:103F200019060CF41BCED2CEF1E0FF12BECE62E237
:103F300071E004CF1F920F920FB60F9211242F93AE
:103F40003F934F935F936F937F938F939F93AF9321
:103F5000BF93EF93FF9387E993E00E94F305FF91EE
:103F6000EF91BF91AF919F918F917F916F915F91F1
:103F70004F913F912F910F900FBE0F901F9018956A
:103F80001F920F920FB60F9211242F938F939F932E
:103F9000EF93FF93E091A703F091A8038081E09154
:103FA000AD03F091AE0382FD1BC090818091B00300
:103FB0008F5F8F732091B103821741F0E091B003BE
:103FC000F0E0E956FC4F958F8093B003FF91EF919D
:103FD0009F918F912F910F900FBE0F901F9018956A
:103FE0008081F4CF1F920F920FB60F9211242F935E
:103FF0003F934F935F936F937F938F939F93AF9371
:10400000BF93EF93FF938091B900887F803609F4C6
:104010004AC0F0F5883209F4A7C018F5803109F4D8
:104020009BC0B8F4882309F4F9C0883009F494C01F
:10403000FF91EF91BF91AF919F918F917F916F9180
:104040005F914F913F912F910F900FBE0F901F9056
:104050001895883109F488C0803251F780936B033A
:1040600014C0803409F49DC040F48033B9F3883320
:10407000F9F680936B0385ECB0C0803509F485C0F8
:10408000883509F496C0883499F60E94771CD0CF01
:10409000883909F48CC038F5883729F050F488360F
:1040A00011F0803729F683E080936D031092AF0200
:1040B00057C0883809F47BC0803919F0803809F07E
:1040C000B7CF8091AF02803208F071C0E091AF02AB
:1040D00081E08E0F8093AF028091BB00F0E0E1574A
:1040E000FD4F80833DC0803B39F0E0F4803A09F415
:1040F00079C0883A09F09CCF84E080936D031092D8
:104100008E0210928D02E0912303F0912403099511
:1041100080918D0281110FC081E080938D021092F9
:104120006D0209C0803C09F4A6CF883C09F4A3CFF6
:10413000883B09F07DCFE0918E0281E08E0F809365
:104140008E02F0E0E359FD4F80818093BB00909197
:104150008E0280918D0229C0809148038093BB001C
:1041600085EC8093BC0064CF90916A0380916903D1
:10417000981758F5E0916A0381E08E0F80936A03E7
:10418000F0E0E75BFC4F8081E9CFE0916A0381E0DA
:104190008E0F80936A038091BB00F0E0E75BFC4FD9
:1041A000808390916A03809169039817C8F285E82B
:1041B000D8CFE0916A0381E08E0F80936A038091EB
:1041C000BB00F0E0E75BFC4F808380916C038111C2
:1041D0005CCF81E08093470384EA8093BC00109217
:1041E0006D0326CF85EC8093BC0010926D03809107
:1041F000AF02803230F4E091AF02F0E0E157FD4FC2
:1042000010826091AF0270E0E0912103F0912203EF
:104210008FE892E009951092AF020ACF10926B03DB
:1042200034CF8F929F92AF92BF92CF92DF92EF9254
:10423000FF920F931F93CF93DF93CDB7DEB7C6598D
:10424000D1090FB6F894DEBF0FBECDBF6C01DC0103
:104250005B961C921E925A975E961C925E9793965E
:104260001C921E9292978FEF93E095969C938E935B
:10427000949797961C921E92969799969C938E93DC
:1042800098979B961C921E929A979D969C938E93BC
:104290009C979F961C921E929E97D1969C938E936C
:1042A000D097D3961C921E92D297D5969C938E93BC
:1042B000D497D7961C921E92D697D9969C938E939C
:1042C000D897DB961C921E92DA97DD969C938E937C
:1042D000DC97DF961C921E92DE97F601E05CFF4FA2
:1042E00091838083329611821082329691838083EB
:1042F0003296118210823296918380833296118297
:1043000010823296918380833296608380E2F60138
:10431000858F178E82E0211101C080E0842B94E00C
:10432000011101C090E0892B98E0E11001C090E0FC
:10433000892BD60190968C93909791961C92102F72
:104340001E0D120F140F35E0398381E08A8399E046
:104350009B833C8351EA5D838E8375E87F83688706
:1043600039879A8769E16B878C8769E26D87E0E21C
:10437000EE8765E16F87188A65E2698B8A8B75E73E
:104380007B8B8C8B65E96D8BEE8BE5E5EF8B188E67
:10439000E5E6E98F1A8EE1E8EB8FE2E0EC8F11237E
:1043A00009F404C13D8F8E8F9F8F88A336E139A316
:1043B0008AA380E88BA386E28CA38FEF8DA38FE77F
:1043C0008EA37FA380E188A769A71AA75BA71CA675
:1043D0006CE270E0442329F09DA780E38EA76EE293
:1043E00070E0222391F0E1E0F0E0EC0FFD1FE60F1A
:1043F000F71F89E08083E2E0F0E0EC0FFD1FE60F9D
:10440000F71F81E380836E5F7F4F002391F0E1E02F
:10441000F0E0EC0FFD1FE60FF71F89E08083E2E07C
:10442000F0E0EC0FFD1FE60FF71F82E380836E5F65
:104430007F4FEE2091F0E1E0F0E0EC0FFD1FE60F82
:10444000F71F89E08083E2E0F0E0EC0FFD1FE60F4C
:10445000F71F83E380836E5F7F4FE1E0F0E0EC0FB6
:10446000FD1FE60FF71F81E88083E2E0F0E0EC0F2C
:10447000FD1FE60FF71F82E08083CB0103966C0FD0
:104480007D1F20ECFB012383E1E0F0E0EC0FFD1F3A
:10449000E80FF91F20EC20835C01FFEFAF1ABF0A81
:1044A000C5010E940D2C4C01A501BE016F5F7F4F1D
:1044B0000E94EF2D87E090E00E940D2C7C01DC0132
:1044C00011961C921E9213969C928E92129715969C
:1044D000BC92AE92149716961C920E94FA07FC01A9
:1044E000A385B485109709F065C0F486E3868585B9
:1044F0009685D70114962D913C91820F931F968734
:104500008587F601958D892F869586958695977076
:1045100009F058C0868FF601068D802F90E0009735
:1045200011F481E090E00E940D2CD6015B969C93E3
:104530008E935A97F601E15BFF4F110F100F81E048
:104540005F969C91911101C080E0180F1083F601D5
:1045500011821082138212821582148217821682AF
:10456000118610861386128615861486178616867F
:10457000118A108A138A128A158A148A8FEF9FEF84
:10458000978B868B918F808F90E080E0D6015E962E
:104590002C915E9728171906C1F0BCF05A96ED9140
:1045A000FC91E80FF91F10820196F0CF8CE190E0AA
:1045B0006BCFDC018D919C9111970097D1F7ED9213
:1045C000FC9295CF8F5F868FA6CFCA56DF4F0FB66E
:1045D000F894DEBF0FBECDBFDF91CF911F910F9139
:1045E000FF90EF90DF90CF90BF90AF909F908F9013
:1045F0000895EF920F93E7E9F3E01382128288EEB9
:1046000093E0A0E0B0E084839583A683B78329E29A
:1046100031E0318320832DEC30E0358724872CEC8A
:1046200030E03787268728EC30E0318B208B29EC6F
:1046300030E0338B228B2AEC30E0358B248B2EEC50
:1046400030E0378B268B118E128E138E148EE4E39E
:10465000F4E01382128284839583A683B7832BE3CD
:1046600031E0318320832FEF3FEF35872487E4E863
:10467000F4E01382128284839583A683B7838DE44A
:1046800091E091838083EE24E39401E021E041E016
:1046900063E080E196E00E94112121E041E064E0C6
:1046A00080E696E00E94112121E041E065E080EB88
:1046B00096E00E94112121E041E066E080E097E071
:1046C0000E941121E12C00E020E040E067E080E55D
:1046D00097E00E94112120E040E068E080EA97E046
:1046E0000E941121E6E0F6E011821082138212820C
:1046F00080E18483ECEFF5E0118210821382128254
:104700008483E0E9F4E08EE994E0918380839383ED
:1047100082838CEF95E095838483978386831086CC
:1047200015860F91EF900895CF93DF93CDB7DEB745
:10473000C956D1090FB6F894DEBF0FBECDBF78942D
:1047400084B5826084BD84B5816084BD85B5826096
:1047500085BD85B5816085BD80916E008160809347
:104760006E001092810080918100826080938100B0
:1047700080918100816080938100809180008160C0
:10478000809380008091910082608093910080915D
:10479000910081608093910080919000816080936E
:1047A00090008091C10084608093C1008091C1001D
:1047B00082608093C1008091C10081608093C100BC
:1047C0008091C30081608093C3008091C0008260AB
:1047D0008093C0008091C20081608093C20080916C
:1047E0007A00846080937A0080917A00826080935E
:1047F0007A0080917A00816080937A0080917A00BB
:10480000806880937A00109220031092DC0210924C
:10481000DB028091D70081608093D70080EA80938B
:10482000D80089B5806189BD89B5826089BD09B428
:1048300000FEFDCF61E070E080E090E00E94830325
:104840008091D8008F7C80618093D8008091E000B7
:10485000807F8093E0008091E1008E7E8093E10074
:104860008DE08093E200559A209A8FEF9FEF90930E
:10487000410480934004E091A703F091A80382E0F3
:104880008083E091A303F091A4031082E091A5033B
:10489000F091A60380E180831092AF03E091AB0317
:1048A000F091AC0386E08083E091A903F091AA0324
:1048B000808180618083E091A903F091AA038081C7
:1048C00088608083E091A903F091AA0380818068C9
:1048D0008083E091A903F091AA0380818F7D80837A
:1048E0000E94060990E080E00E948F2A80931503C1
:1048F00010923306109232068FEF93E090933506B4
:10490000809334061092370610923606909339063B
:104910008093380610923B0610923A0690933D061B
:1049200080933C0610923F0610923E0690934106FB
:10493000809340061092830610928206909385061B
:1049400080938406109287061092860690938906BB
:104950008093880610928B0610928A0690938D069B
:1049600080938C0610928F0610928E06909391067B
:10497000809390061092D3061092D2069093D5069B
:104980008093D4061092D7061092D6069093D9063B
:104990008093D8061092DB061092DA069093DD061B
:1049A0008093DC061092DF061092DE069093E106FB
:1049B0008093E00610922307109222079093250718
:1049C00080932407109227071092260790932907B7
:1049D0008093280710922B0710922A0790932D0797
:1049E00080932C0710922F0710922E079093310777
:1049F0008093300700E116E0D8015C961C92C80154
:104A00000E94FB1A005B1F4FB7E0003F1B07A1F796
:104A100086E090E00E940D2C8C0180E2F8018083FA
:104A200084E894E092838183138280E290E095830E
:104A3000848310930706009306060E94060981E00E
:104A4000D80113968C93C8010E944C0A811104C0AE
:104A500085EC91E00E94981086E090E00E940D2C79
:104A60008C0181E2F801808384E894E09283818361
:104A7000138280E290E0958384831093FD05009378
:104A8000FC050E94060981E0D80113968C93C801A9
:104A90000E944C0A811104C086E092E00E949810A6
:104AA00010E0612F86E096E00E948B19612F8CEF59
:104AB00095E00E948B191F5F103199F7812C912C82
:104AC000540183943E01B1E26B0E711CE1E0E0936E
:104AD0007303F8E0F0939503109274031092960319
:104AE00061E084E894E00E94A00B81E00E943E090E
:104AF00041E068E188E00E94710A109226038093E9
:104B000025032DED32E0AA963FAF2EAFAA9789017B
:104B100084E894E00E94F40497FD08C0D8018D93C6
:104B20008D01E5EFF2E0EA17FB0791F700E116E0EF
:104B3000F12CE12CD12CC12C8C2DD8015D969C91AF
:104B40005D9796012E0D3F1DF90143E0F595E79520
:104B50004A95E1F7E352FD4F408150E0277033273B
:104B600002C0559547952A95E2F740FD69C2C916DE
:104B700000F5EC2DE695E695E6955A962D913C913B
:104B8000E20FF32FF11D8770A501940104C0220FDD
:104B9000331F441F551F8A95D2F7C9012081822BEC
:104BA0008083D8015C968C91882319F0C8010E94FB
:104BB000FB1ABFEFCB1ADB0AE0E2CE16D10409F0F4
:104BC000BBCFC8010E94FB1A005B1F4FF0E2EF0E43
:104BD000F11C20ECE216F10409F0ACCF31E0309387
:104BE000730348E040939503109274031092960368
:104BF00062E084E894E00E94A00B81E00E943E09FC
:104C000041E060E288E00E94710A109226038093DE
:104C10002503CE0101967C016C018C0184E894E0AF
:104C20000E94F40497FD06C0D6018D936D016A16AB
:104C30007B06A1F735EFC32E32E0D32EF601D70164
:104C400011968C91119790E0982F88272C91820FC4
:104C5000911D81939193B2E0EB0EF11C6E147F04D1
:104C600071F78091F5029091F6029093110680936E
:104C7000100680912C06882321F080E196E00E94A6
:104C8000FB1A8091F7029091F8029093130680939B
:104C9000120680912C06882321F080E196E00E9484
:104CA000FB1A8091F9029091FA0290931506809375
:104CB000140680912C06882321F080E196E00E9462
:104CC000FB1A8091FB029091FC029093170680934F
:104CD000160680912C06882321F080E196E00E9440
:104CE000FB1A80E196E00E94FB1A8091FD029091F0
:104CF000FE02909361068093600680917C06882373
:104D000021F080E696E00E94FB1A8091FF029091CC
:104D10000003909363068093620680917C0688234B
:104D200021F080E696E00E94FB1A809101039091A9
:104D30000203909365068093640680917C06882325
:104D400021F080E696E00E94FB1A80910303909187
:104D50000403909367068093660680917C068823FF
:104D600021F080E696E00E94FB1A80E696E00E9421
:104D7000FB1A80910503909106039093B1068093EE
:104D8000B0068091CC06882321F080EB96E00E944B
:104D9000FB1A80910703909108039093B3068093C8
:104DA000B2068091CC06882321F080EB96E00E9429
:104DB000FB1A8091090390910A039093B5068093A2
:104DC000B4068091CC06882321F080EB96E00E9407
:104DD000FB1A80910B0390910C039093B70680937C
:104DE000B6068091CC06882321F080EB96E00E94E5
:104DF000FB1A80EB96E00E94FB1A80910D039091C4
:104E00000E03909301078093000780911C0788236D
:104E100021F080E097E00E94FB1A80910F039091AF
:104E20001003909303078093020780911C07882347
:104E300021F080E097E00E94FB1A8091110390918D
:104E40001203909305078093040780911C07882321
:104E500021F080E097E00E94FB1A8091130390916B
:104E60001403909307078093060780911C078823FB
:104E700021F080E097E00E94FB1A80E097E00E941A
:104E8000FB1A65E070E080E090E00E94830380916F
:104E90001503882309F475C08BE791E00E94AC06E6
:104EA00089E791E00E94AC06F12CE12CF6012190FB
:104EB00031906F01032C000C440855084AE0C201F0
:104EC000B10157FE0DC06DE284E394E00E949606A6
:104ED00066277727CB0162197309840995094AE08F
:104EE0000E945410FFE0EF16F10421F087E791E0F3
:104EF0000E94AC062FEFE21AF20A30E1E316F10449
:104F0000A9F685E791E00E94AC0683E791E00E9454
:104F1000AC0687E891E00E94471089E591E00E9485
:104F2000AC0687E591E00E94AC06F12CE12CAA9634
:104F3000AEADBFADAA976D91AA96BFAFAEAFAA971F
:104F400070E090E080E04AE00E945410BFEBEB1666
:104F5000F10421F085E591E00E94AC06EFEFEE1A36
:104F6000FE0AF0ECEF16F10411F783E591E00E94E0
:104F7000AC0681E591E00E94AC0687E891E00E94D2
:104F8000471084E394E00E941907892B09F471C14A
:104F9000A4961FAE1EAEA497A6961FAE1EAEA697F1
:104FA000A8961FAE1EAEA89770E060E0CE018E59A5
:104FB0009F4F0E949A1AA4962EAD3FADA4978111DF
:104FC0005BC02115310519F0C9010E94A92CA496D6
:104FD0001FAE1EAEA497A8961FAE1EAEA897A696AB
:104FE0001FAE1EAEA69784E394E00E94F404A89638
:104FF000EEACFFACA89797FD49C08132910509F44A
:1050000045C089831A822FEFE21AF20AB701CE0156
:105010008E599F4F0E949A1A882329F3A4962EAD89
:105020003FADA497A8968EAD9FADA897B801820F0B
:10503000931F0E94F82DA896FFAEEEAEA897D3CF8F
:10504000C91608F0B6CDEC2DE695E695E6955A968C
:105050002D913C91E20FF32FF11D8770A501940172
:1050600004C0220F331F441F551F8A95D2F7922F79
:1050700090958081892394CDA8961FAE1EAEA897E7
:105080006BE671E0C9010E94F82DADCFA4968EADFC
:105090009FADA49720919004309191043093930494
:1050A00020939204209196043091970430939504B4
:1050B000209394041092980420919D0420782093CA
:1050C0009D0440E954E06C965FAF4EAF6C9728E0CA
:1050D000FE01E65AFF4FDE01AE5ABF4F01900D921E
:1050E0002A95E1F728E0FE01EE5AFF4FD801019022
:1050F0000D922A95E1F719869B878A87E80EF91E9B
:10510000FD86EC861F86598B488B4AE069E974E07E
:10511000C8010E94E11080919D04F12CE12C85FFD3
:1051200004C089E9E82E84E0F82E6BE971E0C7013C
:105130000E94BF126C01009709F4BAC0DC011496FA
:105140008C918F7709F4B4C0E7E4F2E0FA83E98345
:10515000B801C6010E940E17019709F05BC06EEA04
:1051600071E0C7010E94BF12009709F449C0DC0139
:1051700014962C91149726FF43C00D911C91F12C8D
:10518000E12C0115110509F46DC0F80184818F77B8
:10519000883039F08A3041F181E592E00E94981020
:1051A0001BC080819181A281B38181159048A105A6
:1051B000B10590F7C8010E945E0F019721F461E0EC
:1051C000C7010E94721AC8010E945E0F892B21F448
:1051D00060E0C7010E94721A2FEFE21AF20AC801BA
:1051E0000E9439108C01CDCF80819181A281B38141
:1051F0009058AF4FBF4F0097A140B10568F6DACF86
:1052000068E072E0C8010E94C21AC8010E94191623
:10521000C80148C084E692E09A838983B801C60138
:105220000E940E17019709F040C06EEA71E0C701B5
:105230000E94BF12FC01892B49F194819F7731F1C3
:1052400061EF71E09630F1F6108190E080E00E940D
:105250008F2A181729F0612F90E080E00E94972A8A
:10526000109315030E94C616CE018E599F4F0E94BF
:10527000921A80E090E0892B09F428CC0E94DF0587
:10528000882309F423CC0E94000020CC6EED71E04D
:10529000CE0101960E94C21ACE0101960E941916F3
:1052A000CE0101960E94921ADFCF66EB71E0AACF81
:1052B00065E971E0A7CFFB01DC0105900D920020AC
:1052C000E1F70895FC0105900020E9F7809590959D
:1052D0008E0F9F1F08950E94AD2908F481E0089564
:1052E000E89409C097FB3EF4909580957095619580
:1052F0007F4F8F4F9F4F9923A9F0F92F96E9BB2736
:105300009395F695879577956795B795F111F8CFB1
:10531000FAF4BB0F11F460FF1BC06F5F7F4F8F4F1C
:105320009F4F16C0882311F096E911C0772321F012
:105330009EE8872F762F05C0662371F096E8862FAA
:1053400070E060E02AF09A95660F771F881FDAF701
:10535000880F9695879597F90895990F0008550F2E
:10536000AA0BE0E8FEEF16161706E807F907C0F0EB
:1053700012161306E407F50798F0621B730B840BF3
:10538000950B39F40A2661F0232B242B252B21F4CD
:1053900008950A2609F4A140A6958FEF811D811D6D
:1053A00008950E94E4290C94552A0E94472A38F057
:1053B0000E944E2A20F0952311F00C943E2A0C9462
:1053C000442A11240C94892A0E94662A70F3959F1E
:1053D000C1F3950F50E0551F629FF001729FBB27EC
:1053E000F00DB11D639FAA27F00DB11DAA1F649F88
:1053F0006627B00DA11D661F829F2227B00DA11D3B
:10540000621F739FB00DA11D621F839FA00D611DC0
:10541000221F749F3327A00D611D231F849F600DE1
:10542000211D822F762F6A2F11249F5750409AF00A
:10543000F1F088234AF0EE0FFF1FBB1F661F771F96
:10544000881F91505040A9F79E3F510580F00C9461
:105450003E2A0C94892A5F3FE4F3983ED4F3869564
:1054600077956795B795F795E7959F5FC1F7FE2B01
:10547000880F911D9695879597F9089597F99F67DD
:1054800080E870E060E008959FEF80EC08950024CC
:105490000A941616170618060906089500240A9499
:1054A00012161306140605060895092E0394000C1F
:1054B00011F4882352F0BB0F40F4BF2B11F460FFAE
:1054C00004C06F5F7F4F8F4F9F4F089557FD9058D7
:1054D000440F551F59F05F3F71F04795880F97FBB8
:1054E000991F61F09F3F79F0879508951216130672
:1054F0001406551FF2CF4695F1DF08C016161706A1
:105500001806991FF1CF86957105610508940895D5
:10551000E894BB2766277727CB0197F90895F99977
:10552000FECF92BD81BDF89A992780B50895262FA8
:10553000F999FECF1FBA92BD81BD20BD0FB6F89478
:10554000FA9AF99A0FBE01960895052E97FB1EF45C
:1055500000940E94BC2A57FD07D00E94062B07FC2E
:1055600003D04EF40C94BC2A50954095309521956B
:105570003F4F4F4F5F4F089590958095709561957F
:105580007F4F8F4F9F4F08950E94282BA59F900D0E
:10559000B49F900DA49F800D911D112408952F920A
:1055A0003F924F925F926F927F928F929F92AF92B3
:1055B000BF92CF92DF92EF92FF920F931F93CF9300
:1055C000DF93CDB7DEB7CA1BDB0B0FB6F894DEBF97
:1055D0000FBECDBF09942A88398848885F846E84BD
:1055E0007D848C849B84AA84B984C884DF80EE8007
:1055F000FD800C811B81AA81B981CE0FD11D0FB610
:10560000F894DEBF0FBECDBFED010895A1E21A2EC2
:10561000AA1BBB1BFD010DC0AA1FBB1FEE1FFF1F56
:10562000A217B307E407F50720F0A21BB30BE40BA6
:10563000F50B661F771F881F991F1A9469F76095ED
:105640007095809590959B01AC01BD01CF010895A7
:10565000A29FB001B39FC001A39F700D811D1124B3
:10566000911DB29F700D811D1124911D0895AA1BDB
:10567000BB1B51E107C0AA1FBB1FA617B70710F03D
:10568000A61BB70B881F991F5A95A9F7809590956F
:10569000BC01CD01089597FB072E16F4009407D0A6
:1056A00077FD09D00E94372B07FC05D03EF490957A
:1056B00081959F4F0895709561957F4F0895EE0FE6
:1056C000FF1F0590F491E02D09945058BB27AA279D
:1056D0000E947D2B0C94552A0E94472A38F00E9484
:1056E0004E2A20F039F49F3F19F426F40C94442AF2
:1056F0000EF4E095E7FB0C943E2AE92F0E94662AFF
:1057000058F3BA17620773078407950720F079F4F6
:10571000A6F50C94882A0EF4E0950B2EBA2FA02D36
:105720000B01B90190010C01CA01A0011124FF274E
:10573000591B99F0593F50F4503E68F11A16F04049
:10574000A22F232F342F4427585FF3CF4695379548
:105750002795A795F0405395C9F77EF41F16BA0B0D
:10576000620B730B840BBAF09150A1F0FF0FBB1FBB
:10577000661F771F881FC2F70EC0BA0F621F731F04
:10578000841F48F4879577956795B795F7959E3F61
:1057900008F0B0CF9395880F08F09927EE0F9795F2
:1057A000879508950E94D92B6894B1110C94892A89
:1057B00008950E946E2A88F09F5798F0B92F992774
:1057C000B751B0F0E1F0660F771F881F991F1AF0EC
:1057D000BA95C9F714C0B13091F00E94882AB1E09F
:1057E00008950C94882A672F782F8827B85F39F09E
:1057F000B93FCCF3869577956795B395D9F73EF485
:1058000090958095709561957F4F8F4F9F4F08952C
:105810000E94AD2908F48FEF08950F931F93CF9343
:10582000DF938230910510F482E090E0E091F2077E
:10583000F091F30730E020E0B0E0A0E0309799F479
:105840002115310509F44AC0281B390B24303105D4
:10585000D8F58A819B816115710589F1FB019383DC
:105860008283FE0111C0408151810281138148175A
:105870005907E0F04817590799F4109761F012960C
:105880000C93129713961C933296CF01DF91CF9110
:105890001F910F9108950093F2071093F307F4CF2F
:1058A0002115310551F04217530738F0A901DB01EA
:1058B0009A01BD01DF01F801C1CFEF01F9CF90934B
:1058C000F3078093F207CDCFFE01E20FF31F819320
:1058D00091932250310939832883D7CF2091F00743
:1058E0003091F107232B41F42091150130911601DD
:1058F0003093F1072093F0072091130130911401A8
:105900002115310541F42DB73EB740911701509153
:105910001801241B350BE091F007F091F107E21715
:10592000F307A0F42E1B3F0B2817390778F0AC01C2
:105930004E5F5F4F2417350748F04E0F5F1F50939F
:10594000F1074093F007819391939FCFF0E0E0E05F
:105950009CCFCF93DF930097E9F0FC01329713823D
:105960001282A091F207B091F307ED0130E020E040
:105970001097A1F420813181820F931F2091F007AD
:105980003091F1072817390709F061C0F093F1074A
:10599000E093F007DF91CF910895EA01CE17DF077A
:1059A000E8F54A815B819E0141155105B1F7E90196
:1059B000FB83EA8349915991C40FD51FEC17FD076A
:1059C00061F4808191810296840F951FE90199838A
:1059D0008883828193819B838A83F0E0E0E0129642
:1059E0008D919C9113970097B9F52D913C9111974A
:1059F000CD010296820F931F2091F0073091F1079D
:105A00002817390739F6309751F51092F30710929D
:105A1000F207B093F107A093F007BCCFD383C28302
:105A200040815181840F951FC817D90761F44E5FDB
:105A30005F4F88819981480F591F518340838A8124
:105A40009B81938382832115310509F0B0CFF093B8
:105A5000F307E093F2079ECFFD01DC01C0CF138274
:105A60001282D7CFB0E0A0E0E8E3FDE20C94D12AA7
:105A70008C01009751F4CB010E940D2C8C01C801C0
:105A8000CDB7DEB7E0E10C94ED2AFC01E60FF71F7D
:105A90009C0122503109E217F30708F49DC0D90197
:105AA000CD91DC911197C617D70798F0C530D10575
:105AB00030F3CE0104978617970708F3C61BD70B60
:105AC0002297C193D1936D937C93CF010E94A92C0F
:105AD000D6CF5B01AC1ABD0A4C018C0E9D1EA09165
